{"contracts/VaultV2.sol":{"VaultV2":{"abi":[{"anonymous":false,"inputs":[{"indexed":false,"internalType":"address","name":"previousAdmin","type":"address"},{"indexed":false,"internalType":"address","name":"newAdmin","type":"address"}],"name":"AdminChanged","type":"event"},{"anonymous":false,"inputs":[{"indexed":true,"internalType":"address","name":"beacon","type":"address"}],"name":"BeaconUpgraded","type":"event"},{"anonymous":false,"inputs":[{"indexed":true,"internalType":"address","name":"user","type":"address"},{"indexed":false,"internalType":"uint256","name":"amount","type":"uint256"},{"indexed":false,"internalType":"uint256","name":"principalAfter","type":"uint256"}],"name":"Deposited","type":"event"},{"anonymous":false,"inputs":[{"indexed":false,"internalType":"uint8","name":"version","type":"uint8"}],"name":"Initialized","type":"event"},{"anonymous":false,"inputs":[{"indexed":true,"internalType":"address","name":"previousOwner","type":"address"},{"indexed":true,"internalType":"address","name":"newOwner","type":"address"}],"name":"OwnershipTransferred","type":"event"},{"anonymous":false,"inputs":[{"indexed":false,"internalType":"uint256","name":"newMultiplier","type":"uint256"}],"name":"RewardMultiplierUpdated","type":"event"},{"anonymous":false,"inputs":[{"indexed":true,"internalType":"address","name":"implementation","type":"address"}],"name":"Upgraded","type":"event"},{"anonymous":false,"inputs":[{"indexed":true,"internalType":"address","name":"user","type":"address"},{"indexed":false,"internalType":"uint256","name":"amount","type":"uint256"},{"indexed":false,"internalType":"uint256","name":"principalAfter","type":"uint256"}],"name":"Withdrawn","type":"event"},{"inputs":[{"internalType":"address","name":"","type":"address"}],"name":"accruedRewards","outputs":[{"internalType":"uint256","name":"","type":"uint256"}],"stateMutability":"view","type":"function"},{"inputs":[],"name":"deposit","outputs":[],"stateMutability":"payable","type":"function"},{"inputs":[],"name":"doubleRewardMultiplier","outputs":[],"stateMutability":"nonpayable","type":"function"},{"inputs":[{"internalType":"uint256","name":"initialRewardMultiplier","type":"uint256"}],"name":"initialize","outputs":[],"stateMutability":"nonpayable","type":"function"},{"inputs":[],"name":"initializeV2","outputs":[],"stateMutability":"nonpayable","type":"function"},{"inputs":[{"internalType":"address","name":"","type":"address"}],"name":"lastAccrualTimestamp","outputs":[{"internalType":"uint256","name":"","type":"uint256"}],"stateMutability":"view","type":"function"},{"inputs":[],"name":"owner","outputs":[{"internalType":"address","name":"","type":"address"}],"stateMutability":"view","type":"function"},{"inputs":[{"internalType":"address","name":"user","type":"address"}],"name":"pendingRewards","outputs":[{"internalType":"uint256","name":"","type":"uint256"}],"stateMutability":"view","type":"function"},{"inputs":[{"internalType":"address","name":"","type":"address"}],"name":"principalBalance","outputs":[{"internalType":"uint256","name":"","type":"uint256"}],"stateMutability":"view","type":"function"},{"inputs":[],"name":"proxiableUUID","outputs":[{"internalType":"bytes32","name":"","type":"bytes32"}],"stateMutability":"view","type":"function"},{"inputs":[],"name":"renounceOwnership","outputs":[],"stateMutability":"nonpayable","type":"function"},{"inputs":[],"name":"rewardMultiplier","outputs":[{"internalType":"uint256","name":"","type":"uint256"}],"stateMutability":"view","type":"function"},{"inputs":[],"name":"totalEthLocked","outputs":[{"internalType":"uint256","name":"","type":"uint256"}],"stateMutability":"view","type":"function"},{"inputs":[{"internalType":"address","name":"newOwner","type":"address"}],"name":"transferOwnership","outputs":[],"stateMutability":"nonpayable","type":"function"},{"inputs":[{"internalType":"uint256","name":"newMultiplier","type":"uint256"}],"name":"updateRewardMultiplier","outputs":[],"stateMutability":"nonpayable","type":"function"},{"inputs":[{"internalType":"address","name":"newImplementation","type":"address"}],"name":"upgradeTo","outputs":[],"stateMutability":"nonpayable","type":"function"},{"inputs":[{"internalType":"address","name":"newImplementation","type":"address"},{"internalType":"bytes","name":"data","type":"bytes"}],"name":"upgradeToAndCall","outputs":[],"stateMutability":"payable","type":"function"},{"inputs":[],"name":"version","outputs":[{"internalType":"string","name":"","type":"string"}],"stateMutability":"pure","type":"function"},{"inputs":[{"internalType":"uint256","name":"amount","type":"uint256"}],"name":"withdraw","outputs":[],"stateMutability":"nonpayable","type":"function"}],"evm":{"bytecode":{"linkReferences":{},"object":"60a06040523060805234801561001457600080fd5b5061001d610022565b6100e1565b600054610100900460ff161561008e5760405162461bcd60e51b815260206004820152602760248201527f496e697469616c697a61626c653a20636f6e747261637420697320696e697469604482015266616c697a696e6760c81b606482015260840160405180910390fd5b60005460ff908116146100df576000805460ff191660ff9081179091556040519081527f7f26b83ff96e1f2b6a682f133852f6798a09c465da95921460cefb38474024989060200160405180910390a15b565b60805161168e61011860003960008181610674015281816106b401528181610750015281816107900152610823015261168e6000f3fe6080604052600436106101145760003560e01c80635cd8a76b116100a0578063d0e30db011610064578063d0e30db0146102de578063e479c8f7146102e6578063e68fc0ee146102fc578063f2fde38b14610329578063fe4b84df1461034957600080fd5b80635cd8a76b146102565780636f2c590a1461026b578063715018a6146102815780638da5cb5b14610296578063c5b23af5146102be57600080fd5b80633659cfe6116100e75780633659cfe6146101c85780634f1ef286146101e857806352d1902d146101fb57806354fd4d5014610210578063587ca2451461024157600080fd5b8063128fced11461011957806316851b36146101595780632e1a7d4d1461018657806331d7a262146101a8575b600080fd5b34801561012557600080fd5b506101466101343660046112d3565b60fc6020526000908152604090205481565b6040519081526020015b60405180910390f35b34801561016557600080fd5b506101466101743660046112d3565b60fd6020526000908152604090205481565b34801561019257600080fd5b506101a66101a13660046112ee565b610369565b005b3480156101b457600080fd5b506101466101c33660046112d3565b610588565b3480156101d457600080fd5b506101a66101e33660046112d3565b61066a565b6101a66101f636600461131d565b610746565b34801561020757600080fd5b50610146610816565b34801561021c57600080fd5b5060408051808201825260028152612b1960f11b602082015290516101509190611403565b34801561024d57600080fd5b506101a66108c9565b34801561026257600080fd5b506101a66108e4565b34801561027757600080fd5b5061014660ff5481565b34801561028d57600080fd5b506101a6610975565b3480156102a257600080fd5b506097546040516001600160a01b039091168152602001610150565b3480156102ca57600080fd5b506101a66102d93660046112ee565b610989565b6101a66109c6565b3480156102f257600080fd5b5061014660fe5481565b34801561030857600080fd5b506101466103173660046112d3565b60fb6020526000908152604090205481565b34801561033557600080fd5b506101a66103443660046112d3565b610aa5565b34801561035557600080fd5b506101a66103643660046112ee565b610b1b565b610371610bfa565b600081116103b65760405162461bcd60e51b815260206004820152600d60248201526c5a45524f5f574954484452415760981b60448201526064015b60405180910390fd5b6103bf33610c53565b33600090815260fb602090815260408083205460fc90925282205490916103e6828461144c565b90508381101561042f5760405162461bcd60e51b8152602060048201526014602482015273494e53554646494349454e545f42414c414e434560601b60448201526064016103ad565b60008285111561043f5782610441565b845b9050600061044f828761145f565b905061045b828561145f565b33600090815260fc6020526040902055610475818661145f565b33600090815260fb602052604081209190915560fe805483929061049a90849061145f565b9091555050604051600090339088908381818185875af1925050503d80600081146104e1576040519150601f19603f3d011682016040523d82523d6000602084013e6104e6565b606091505b505090508061052d5760405162461bcd60e51b815260206004820152601360248201527211551217d514905394d1915497d19052531151606a1b60448201526064016103ad565b33600081815260fb60209081526040918290205482518b8152918201527f92ccf450a286a957af52509bc1c9939d1a6a481783e142e41e2499f0bb66ebc6910160405180910390a2505050505050610585600160c955565b50565b6001600160a01b038116600090815260fd602052604081205481906105ad904261145f565b90508015806105d257506001600160a01b038316600090815260fb6020526040902054155b156105f45750506001600160a01b0316600090815260fc602052604090205490565b60ff546001600160a01b038416600090815260fb60205260408120549091670de0b6b3a764000091849161062791611472565b6106319190611472565b61063b9190611489565b6001600160a01b038516600090815260fc602052604090205490915061066290829061144c565b949350505050565b6001600160a01b037f00000000000000000000000000000000000000000000000000000000000000001630036106b25760405162461bcd60e51b81526004016103ad906114ab565b7f00000000000000000000000000000000000000000000000000000000000000006001600160a01b03166106fb600080516020611612833981519152546001600160a01b031690565b6001600160a01b0316146107215760405162461bcd60e51b81526004016103ad906114f7565b61072a81610d6c565b6040805160008082526020820190925261058591839190610d74565b6001600160a01b037f000000000000000000000000000000000000000000000000000000000000000016300361078e5760405162461bcd60e51b81526004016103ad906114ab565b7f00000000000000000000000000000000000000000000000000000000000000006001600160a01b03166107d7600080516020611612833981519152546001600160a01b031690565b6001600160a01b0316146107fd5760405162461bcd60e51b81526004016103ad906114f7565b61080682610d6c565b61081282826001610d74565b5050565b6000306001600160a01b037f000000000000000000000000000000000000000000000000000000000000000016146108b65760405162461bcd60e51b815260206004820152603860248201527f555550535570677261646561626c653a206d757374206e6f742062652063616c60448201527f6c6564207468726f7567682064656c656761746563616c6c000000000000000060648201526084016103ad565b5060008051602061161283398151915290565b6108d1610ee4565b60ff546108df906002611472565b60ff55565b600054600290610100900460ff16158015610906575060005460ff8083169116105b6109225760405162461bcd60e51b81526004016103ad90611543565b6000805461ffff191660ff83169081176101001761ff0019169091556040519081527f7f26b83ff96e1f2b6a682f133852f6798a09c465da95921460cefb3847402498906020015b60405180910390a150565b61097d610ee4565b6109876000610f3e565b565b610991610ee4565b60ff8190556040518181527f2dc77efcef672c24de8314e0bc5c0937b13d1d8c4ccea4acf5246edf821b93d59060200161096a565b6109ce610bfa565b60003411610a0d5760405162461bcd60e51b815260206004820152600c60248201526b16915493d7d1115413d4d25560a21b60448201526064016103ad565b610a1633610c53565b33600090815260fb602052604081208054349290610a3590849061144c565b925050819055503460fe6000828254610a4e919061144c565b909155505033600081815260fb6020908152604091829020548251348152918201527f73a19dd210f1a7f902193214c0ee91dd35ee5b4d920cba8d519eca65a7b488ca910160405180910390a2610987600160c955565b610aad610ee4565b6001600160a01b038116610b125760405162461bcd60e51b815260206004820152602660248201527f4f776e61626c653a206e6577206f776e657220697320746865207a65726f206160448201526564647265737360d01b60648201526084016103ad565b61058581610f3e565b600054610100900460ff1615808015610b3b5750600054600160ff909116105b80610b555750303b158015610b55575060005460ff166001145b610b715760405162461bcd60e51b81526004016103ad90611543565b6000805460ff191660011790558015610b94576000805461ff0019166101001790555b610b9c610f90565b610ba4610fbf565b610bac610fe6565b60ff8290558015610812576000805461ff0019169055604051600181527f7f26b83ff96e1f2b6a682f133852f6798a09c465da95921460cefb38474024989060200160405180910390a15050565b600260c95403610c4c5760405162461bcd60e51b815260206004820152601f60248201527f5265656e7472616e637947756172643a207265656e7472616e742063616c6c0060448201526064016103ad565b600260c955565b6001600160a01b038116600090815260fd60205260408120544291819003610c9257506001600160a01b03909116600090815260fd6020526040902055565b6000610c9e828461145f565b9050600081118015610cc757506001600160a01b038416600090815260fb602052604090205415155b15610d475760ff546001600160a01b038516600090815260fb60205260408120549091670de0b6b3a7640000918491610cff91611472565b610d099190611472565b610d139190611489565b6001600160a01b038616600090815260fc6020526040812080549293508392909190610d4090849061144c565b9091555050505b50506001600160a01b03909116600090815260fd6020526040902055565b600160c955565b610585610ee4565b7f4910fdfa16fed3260ed0e7147f7cc6da11a60208b5b9406d12a635614ffd91435460ff1615610dac57610da783611015565b505050565b826001600160a01b03166352d1902d6040518163ffffffff1660e01b8152600401602060405180830381865afa925050508015610e06575060408051601f3d908101601f19168201909252610e0391810190611591565b60015b610e695760405162461bcd60e51b815260206004820152602e60248201527f45524331393637557067726164653a206e657720696d706c656d656e7461746960448201526d6f6e206973206e6f74205555505360901b60648201526084016103ad565b6000805160206116128339815191528114610ed85760405162461bcd60e51b815260206004820152602960248201527f45524331393637557067726164653a20756e737570706f727465642070726f786044820152681a58589b195555525160ba1b60648201526084016103ad565b50610da78383836110b1565b6097546001600160a01b031633146109875760405162461bcd60e51b815260206004820181905260248201527f4f776e61626c653a2063616c6c6572206973206e6f7420746865206f776e657260448201526064016103ad565b609780546001600160a01b038381166001600160a01b0319831681179093556040519116919082907f8be0079c531659141344cd1fd0a4f28419497f9722a3daafe3b4186f6b6457e090600090a35050565b600054610100900460ff16610fb75760405162461bcd60e51b81526004016103ad906115aa565b6109876110dc565b600054610100900460ff166109875760405162461bcd60e51b81526004016103ad906115aa565b600054610100900460ff1661100d5760405162461bcd60e51b81526004016103ad906115aa565b61098761110c565b6001600160a01b0381163b6110825760405162461bcd60e51b815260206004820152602d60248201527f455243313936373a206e657720696d706c656d656e746174696f6e206973206e60448201526c1bdd08184818dbdb9d1c9858dd609a1b60648201526084016103ad565b60008051602061161283398151915280546001600160a01b0319166001600160a01b0392909216919091179055565b6110ba83611133565b6000825111806110c75750805b15610da7576110d68383611173565b50505050565b600054610100900460ff166111035760405162461bcd60e51b81526004016103ad906115aa565b61098733610f3e565b600054610100900460ff16610d655760405162461bcd60e51b81526004016103ad906115aa565b61113c81611015565b6040516001600160a01b038216907fbc7cd75a20ee27fd9adebab32041f755214dbc6bffa90cc0225b39da2e5c2d3b90600090a250565b60606111988383604051806060016040528060278152602001611632602791396111a1565b90505b92915050565b6060600080856001600160a01b0316856040516111be91906115f5565b600060405180830381855af49150503d80600081146111f9576040519150601f19603f3d011682016040523d82523d6000602084013e6111fe565b606091505b509150915061120f86838387611219565b9695505050505050565b60608315611288578251600003611281576001600160a01b0385163b6112815760405162461bcd60e51b815260206004820152601d60248201527f416464726573733a2063616c6c20746f206e6f6e2d636f6e747261637400000060448201526064016103ad565b5081610662565b610662838381511561129d5781518083602001fd5b8060405162461bcd60e51b81526004016103ad9190611403565b80356001600160a01b03811681146112ce57600080fd5b919050565b6000602082840312156112e557600080fd5b611198826112b7565b60006020828403121561130057600080fd5b5035919050565b634e487b7160e01b600052604160045260246000fd5b6000806040838503121561133057600080fd5b611339836112b7565b9150602083013567ffffffffffffffff8082111561135657600080fd5b818501915085601f83011261136a57600080fd5b81358181111561137c5761137c611307565b604051601f8201601f19908116603f011681019083821181831017156113a4576113a4611307565b816040528281528860208487010111156113bd57600080fd5b8260208601602083013760006020848301015280955050505050509250929050565b60005b838110156113fa5781810151838201526020016113e2565b50506000910152565b60208152600082518060208401526114228160408501602087016113df565b601f01601f19169190910160400192915050565b634e487b7160e01b600052601160045260246000fd5b8082018082111561119b5761119b611436565b8181038181111561119b5761119b611436565b808202811582820484141761119b5761119b611436565b6000826114a657634e487b7160e01b600052601260045260246000fd5b500490565b6020808252602c908201527f46756e6374696f6e206d7573742062652063616c6c6564207468726f7567682060408201526b19195b1959d85d1958d85b1b60a21b606082015260800190565b6020808252602c908201527f46756e6374696f6e206d7573742062652063616c6c6564207468726f7567682060408201526b6163746976652070726f787960a01b606082015260800190565b6020808252602e908201527f496e697469616c697a61626c653a20636f6e747261637420697320616c72656160408201526d191e481a5b9a5d1a585b1a5e995960921b606082015260800190565b6000602082840312156115a357600080fd5b5051919050565b6020808252602b908201527f496e697469616c697a61626c653a20636f6e7472616374206973206e6f74206960408201526a6e697469616c697a696e6760a81b606082015260800190565b600082516116078184602087016113df565b919091019291505056fe360894a13ba1a3210667c828492db98dca3e2076cc3735a920a3ca505d382bbc416464726573733a206c6f772d6c6576656c2064656c65676174652063616c6c206661696c6564a2646970667358221220636cc0773e48fe1e4270e592682a5333ee2b53f630daddb9fbe10b920009fa4764736f6c63430008180033","opcodes":"PUSH1 0xA0 PUSH1 0x40 MSTORE ADDRESS PUSH1 0x80 MSTORE CALLVALUE DUP1 ISZERO PUSH2 0x14 JUMPI PUSH1 0x0 DUP1 REVERT JUMPDEST POP PUSH2 0x1D PUSH2 0x22 JUMP JUMPDEST PUSH2 0xE1 JUMP JUMPDEST PUSH1 0x0 SLOAD PUSH2 0x100 SWAP1 DIV PUSH1 0xFF AND ISZERO PUSH2 0x8E JUMPI PUSH1 0x40 MLOAD PUSH3 0x461BCD PUSH1 0xE5 SHL DUP2 MSTORE PUSH1 0x20 PUSH1 0x4 DUP3 ADD MSTORE PUSH1 0x27 PUSH1 0x24 DUP3 ADD MSTORE PUSH32 0x496E697469616C697A61626C653A20636F6E747261637420697320696E697469 PUSH1 0x44 DUP3 ADD MSTORE PUSH7 0x616C697A696E67 PUSH1 0xC8 SHL PUSH1 0x64 DUP3 ADD MSTORE PUSH1 0x84 ADD PUSH1 0x40 MLOAD DUP1 SWAP2 SUB SWAP1 REVERT JUMPDEST PUSH1 0x0 SLOAD PUSH1 0xFF SWAP1 DUP2 AND EQ PUSH2 0xDF JUMPI PUSH1 0x0 DUP1 SLOAD PUSH1 0xFF NOT AND PUSH1 0xFF SWAP1 DUP2 OR SWAP1 SWAP2 SSTORE PUSH1 0x40 MLOAD SWAP1 DUP2 MSTORE PUSH32 0x7F26B83FF96E1F2B6A682F133852F6798A09C465DA95921460CEFB3847402498 SWAP1 PUSH1 0x20 ADD PUSH1 0x40 MLOAD DUP1 SWAP2 SUB SWAP1 LOG1 JUMPDEST JUMP JUMPDEST PUSH1 0x80 MLOAD PUSH2 0x168E PUSH2 0x118 PUSH1 0x0 CODECOPY PUSH1 0x0 DUP2 DUP2 PUSH2 0x674 ADD MSTORE DUP2 DUP2 PUSH2 0x6B4 ADD MSTORE DUP2 DUP2 PUSH2 0x750 ADD MSTORE DUP2 DUP2 PUSH2 0x790 ADD MSTORE PUSH2 0x823 ADD MSTORE PUSH2 0x168E PUSH1 0x0 RETURN INVALID PUSH1 0x80 PUSH1 0x40 MSTORE PUSH1 0x4 CALLDATASIZE LT PUSH2 0x114 JUMPI PUSH1 0x0 CALLDATALOAD PUSH1 0xE0 SHR DUP1 PUSH4 0x5CD8A76B GT PUSH2 0xA0 JUMPI DUP1 PUSH4 0xD0E30DB0 GT PUSH2 0x64 JUMPI DUP1 PUSH4 0xD0E30DB0 EQ PUSH2 0x2DE JUMPI DUP1 PUSH4 0xE479C8F7 EQ PUSH2 0x2E6 JUMPI DUP1 PUSH4 0xE68FC0EE EQ PUSH2 0x2FC JUMPI DUP1 PUSH4 0xF2FDE38B EQ PUSH2 0x329 JUMPI DUP1 PUSH4 0xFE4B84DF EQ PUSH2 0x349 JUMPI PUSH1 0x0 DUP1 REVERT JUMPDEST DUP1 PUSH4 0x5CD8A76B EQ PUSH2 0x256 JUMPI DUP1 PUSH4 0x6F2C590A EQ PUSH2 0x26B JUMPI DUP1 PUSH4 0x715018A6 EQ PUSH2 0x281 JUMPI DUP1 PUSH4 0x8DA5CB5B EQ PUSH2 0x296 JUMPI DUP1 PUSH4 0xC5B23AF5 EQ PUSH2 0x2BE JUMPI PUSH1 0x0 DUP1 REVERT JUMPDEST DUP1 PUSH4 0x3659CFE6 GT PUSH2 0xE7 JUMPI DUP1 PUSH4 0x3659CFE6 EQ PUSH2 0x1C8 JUMPI DUP1 PUSH4 0x4F1EF286 EQ PUSH2 0x1E8 JUMPI DUP1 PUSH4 0x52D1902D EQ PUSH2 0x1FB JUMPI DUP1 PUSH4 0x54FD4D50 EQ PUSH2 0x210 JUMPI DUP1 PUSH4 0x587CA245 EQ PUSH2 0x241 JUMPI PUSH1 0x0 DUP1 REVERT JUMPDEST DUP1 PUSH4 0x128FCED1 EQ PUSH2 0x119 JUMPI DUP1 PUSH4 0x16851B36 EQ PUSH2 0x159 JUMPI DUP1 PUSH4 0x2E1A7D4D EQ PUSH2 0x186 JUMPI DUP1 PUSH4 0x31D7A262 EQ PUSH2 0x1A8 JUMPI JUMPDEST PUSH1 0x0 DUP1 REVERT JUMPDEST CALLVALUE DUP1 ISZERO PUSH2 0x125 JUMPI PUSH1 0x0 DUP1 REVERT JUMPDEST POP PUSH2 0x146 PUSH2 0x134 CALLDATASIZE PUSH1 0x4 PUSH2 0x12D3 JUMP JUMPDEST PUSH1 0xFC PUSH1 0x20 MSTORE PUSH1 0x0 SWAP1 DUP2 MSTORE PUSH1 0x40 SWAP1 KECCAK256 SLOAD DUP2 JUMP JUMPDEST PUSH1 0x40 MLOAD SWAP1 DUP2 MSTORE PUSH1 0x20 ADD JUMPDEST PUSH1 0x40 MLOAD DUP1 SWAP2 SUB SWAP1 RETURN JUMPDEST CALLVALUE DUP1 ISZERO PUSH2 0x165 JUMPI PUSH1 0x0 DUP1 REVERT JUMPDEST POP PUSH2 0x146 PUSH2 0x174 CALLDATASIZE PUSH1 0x4 PUSH2 0x12D3 JUMP JUMPDEST PUSH1 0xFD PUSH1 0x20 MSTORE PUSH1 0x0 SWAP1 DUP2 MSTORE PUSH1 0x40 SWAP1 KECCAK256 SLOAD DUP2 JUMP JUMPDEST CALLVALUE DUP1 ISZERO PUSH2 0x192 JUMPI PUSH1 0x0 DUP1 REVERT JUMPDEST POP PUSH2 0x1A6 PUSH2 0x1A1 CALLDATASIZE PUSH1 0x4 PUSH2 0x12EE JUMP JUMPDEST PUSH2 0x369 JUMP JUMPDEST STOP JUMPDEST CALLVALUE DUP1 ISZERO PUSH2 0x1B4 JUMPI PUSH1 0x0 DUP1 REVERT JUMPDEST POP PUSH2 0x146 PUSH2 0x1C3 CALLDATASIZE PUSH1 0x4 PUSH2 0x12D3 JUMP JUMPDEST PUSH2 0x588 JUMP JUMPDEST CALLVALUE DUP1 ISZERO PUSH2 0x1D4 JUMPI PUSH1 0x0 DUP1 REVERT JUMPDEST POP PUSH2 0x1A6 PUSH2 0x1E3 CALLDATASIZE PUSH1 0x4 PUSH2 0x12D3 JUMP JUMPDEST PUSH2 0x66A JUMP JUMPDEST PUSH2 0x1A6 PUSH2 0x1F6 CALLDATASIZE PUSH1 0x4 PUSH2 0x131D JUMP JUMPDEST PUSH2 0x746 JUMP JUMPDEST CALLVALUE DUP1 ISZERO PUSH2 0x207 JUMPI PUSH1 0x0 DUP1 REVERT JUMPDEST POP PUSH2 0x146 PUSH2 0x816 JUMP JUMPDEST CALLVALUE DUP1 ISZERO PUSH2 0x21C JUMPI PUSH1 0x0 DUP1 REVERT JUMPDEST POP PUSH1 0x40 DUP1 MLOAD DUP1 DUP3 ADD DUP3 MSTORE PUSH1 0x2 DUP2 MSTORE PUSH2 0x2B19 PUSH1 0xF1 SHL PUSH1 0x20 DUP3 ADD MSTORE SWAP1 MLOAD PUSH2 0x150 SWAP2 SWAP1 PUSH2 0x1403 JUMP JUMPDEST CALLVALUE DUP1 ISZERO PUSH2 0x24D JUMPI PUSH1 0x0 DUP1 REVERT JUMPDEST POP PUSH2 0x1A6 PUSH2 0x8C9 JUMP JUMPDEST CALLVALUE DUP1 ISZERO PUSH2 0x262 JUMPI PUSH1 0x0 DUP1 REVERT JUMPDEST POP PUSH2 0x1A6 PUSH2 0x8E4 JUMP JUMPDEST CALLVALUE DUP1 ISZERO PUSH2 0x277 JUMPI PUSH1 0x0 DUP1 REVERT JUMPDEST POP PUSH2 0x146 PUSH1 0xFF SLOAD DUP2 JUMP JUMPDEST CALLVALUE DUP1 ISZERO PUSH2 0x28D JUMPI PUSH1 0x0 DUP1 REVERT JUMPDEST POP PUSH2 0x1A6 PUSH2 0x975 JUMP JUMPDEST CALLVALUE DUP1 ISZERO PUSH2 0x2A2 JUMPI PUSH1 0x0 DUP1 REVERT JUMPDEST POP PUSH1 0x97 SLOAD PUSH1 0x40 MLOAD PUSH1 0x1 PUSH1 0x1 PUSH1 0xA0 SHL SUB SWAP1 SWAP2 AND DUP2 MSTORE PUSH1 0x20 ADD PUSH2 0x150 JUMP JUMPDEST CALLVALUE DUP1 ISZERO PUSH2 0x2CA JUMPI PUSH1 0x0 DUP1 REVERT JUMPDEST POP PUSH2 0x1A6 PUSH2 0x2D9 CALLDATASIZE PUSH1 0x4 PUSH2 0x12EE JUMP JUMPDEST PUSH2 0x989 JUMP JUMPDEST PUSH2 0x1A6 PUSH2 0x9C6 JUMP JUMPDEST CALLVALUE DUP1 ISZERO PUSH2 0x2F2 JUMPI PUSH1 0x0 DUP1 REVERT JUMPDEST POP PUSH2 0x146 PUSH1 0xFE SLOAD DUP2 JUMP JUMPDEST CALLVALUE DUP1 ISZERO PUSH2 0x308 JUMPI PUSH1 0x0 DUP1 REVERT JUMPDEST POP PUSH2 0x146 PUSH2 0x317 CALLDATASIZE PUSH1 0x4 PUSH2 0x12D3 JUMP JUMPDEST PUSH1 0xFB PUSH1 0x20 MSTORE PUSH1 0x0 SWAP1 DUP2 MSTORE PUSH1 0x40 SWAP1 KECCAK256 SLOAD DUP2 JUMP JUMPDEST CALLVALUE DUP1 ISZERO PUSH2 0x335 JUMPI PUSH1 0x0 DUP1 REVERT JUMPDEST POP PUSH2 0x1A6 PUSH2 0x344 CALLDATASIZE PUSH1 0x4 PUSH2 0x12D3 JUMP JUMPDEST PUSH2 0xAA5 JUMP JUMPDEST CALLVALUE DUP1 ISZERO PUSH2 0x355 JUMPI PUSH1 0x0 DUP1 REVERT JUMPDEST POP PUSH2 0x1A6 PUSH2 0x364 CALLDATASIZE PUSH1 0x4 PUSH2 0x12EE JUMP JUMPDEST PUSH2 0xB1B JUMP JUMPDEST PUSH2 0x371 PUSH2 0xBFA JUMP JUMPDEST PUSH1 0x0 DUP2 GT PUSH2 0x3B6 JUMPI PUSH1 0x40 MLOAD PUSH3 0x461BCD PUSH1 0xE5 SHL DUP2 MSTORE PUSH1 0x20 PUSH1 0x4 DUP3 ADD MSTORE PUSH1 0xD PUSH1 0x24 DUP3 ADD MSTORE PUSH13 0x5A45524F5F5749544844524157 PUSH1 0x98 SHL PUSH1 0x44 DUP3 ADD MSTORE PUSH1 0x64 ADD JUMPDEST PUSH1 0x40 MLOAD DUP1 SWAP2 SUB SWAP1 REVERT JUMPDEST PUSH2 0x3BF CALLER PUSH2 0xC53 JUMP JUMPDEST CALLER PUSH1 0x0 SWAP1 DUP2 MSTORE PUSH1 0xFB PUSH1 0x20 SWAP1 DUP2 MSTORE PUSH1 0x40 DUP1 DUP4 KECCAK256 SLOAD PUSH1 0xFC SWAP1 SWAP3 MSTORE DUP3 KECCAK256 SLOAD SWAP1 SWAP2 PUSH2 0x3E6 DUP3 DUP5 PUSH2 0x144C JUMP JUMPDEST SWAP1 POP DUP4 DUP2 LT ISZERO PUSH2 0x42F JUMPI PUSH1 0x40 MLOAD PUSH3 0x461BCD PUSH1 0xE5 SHL DUP2 MSTORE PUSH1 0x20 PUSH1 0x4 DUP3 ADD MSTORE PUSH1 0x14 PUSH1 0x24 DUP3 ADD MSTORE PUSH20 0x494E53554646494349454E545F42414C414E4345 PUSH1 0x60 SHL PUSH1 0x44 DUP3 ADD MSTORE PUSH1 0x64 ADD PUSH2 0x3AD JUMP JUMPDEST PUSH1 0x0 DUP3 DUP6 GT ISZERO PUSH2 0x43F JUMPI DUP3 PUSH2 0x441 JUMP JUMPDEST DUP5 JUMPDEST SWAP1 POP PUSH1 0x0 PUSH2 0x44F DUP3 DUP8 PUSH2 0x145F JUMP JUMPDEST SWAP1 POP PUSH2 0x45B DUP3 DUP6 PUSH2 0x145F JUMP JUMPDEST CALLER PUSH1 0x0 SWAP1 DUP2 MSTORE PUSH1 0xFC PUSH1 0x20 MSTORE PUSH1 0x40 SWAP1 KECCAK256 SSTORE PUSH2 0x475 DUP2 DUP7 PUSH2 0x145F JUMP JUMPDEST CALLER PUSH1 0x0 SWAP1 DUP2 MSTORE PUSH1 0xFB PUSH1 0x20 MSTORE PUSH1 0x40 DUP2 KECCAK256 SWAP2 SWAP1 SWAP2 SSTORE PUSH1 0xFE DUP1 SLOAD DUP4 SWAP3 SWAP1 PUSH2 0x49A SWAP1 DUP5 SWAP1 PUSH2 0x145F JUMP JUMPDEST SWAP1 SWAP2 SSTORE POP POP PUSH1 0x40 MLOAD PUSH1 0x0 SWAP1 CALLER SWAP1 DUP9 SWAP1 DUP4 DUP2 DUP2 DUP2 DUP6 DUP8 GAS CALL SWAP3 POP POP POP RETURNDATASIZE DUP1 PUSH1 0x0 DUP2 EQ PUSH2 0x4E1 JUMPI PUSH1 0x40 MLOAD SWAP2 POP PUSH1 0x1F NOT PUSH1 0x3F RETURNDATASIZE ADD AND DUP3 ADD PUSH1 0x40 MSTORE RETURNDATASIZE DUP3 MSTORE RETURNDATASIZE PUSH1 0x0 PUSH1 0x20 DUP5 ADD RETURNDATACOPY PUSH2 0x4E6 JUMP JUMPDEST PUSH1 0x60 SWAP2 POP JUMPDEST POP POP SWAP1 POP DUP1 PUSH2 0x52D JUMPI PUSH1 0x40 MLOAD PUSH3 0x461BCD PUSH1 0xE5 SHL DUP2 MSTORE PUSH1 0x20 PUSH1 0x4 DUP3 ADD MSTORE PUSH1 0x13 PUSH1 0x24 DUP3 ADD MSTORE PUSH19 0x11551217D514905394D1915497D19052531151 PUSH1 0x6A SHL PUSH1 0x44 DUP3 ADD MSTORE PUSH1 0x64 ADD PUSH2 0x3AD JUMP JUMPDEST CALLER PUSH1 0x0 DUP2 DUP2 MSTORE PUSH1 0xFB PUSH1 0x20 SWAP1 DUP2 MSTORE PUSH1 0x40 SWAP2 DUP3 SWAP1 KECCAK256 SLOAD DUP3 MLOAD DUP12 DUP2 MSTORE SWAP2 DUP3 ADD MSTORE PUSH32 0x92CCF450A286A957AF52509BC1C9939D1A6A481783E142E41E2499F0BB66EBC6 SWAP2 ADD PUSH1 0x40 MLOAD DUP1 SWAP2 SUB SWAP1 LOG2 POP POP POP POP POP POP PUSH2 0x585 PUSH1 0x1 PUSH1 0xC9 SSTORE JUMP JUMPDEST POP JUMP JUMPDEST PUSH1 0x1 PUSH1 0x1 PUSH1 0xA0 SHL SUB DUP2 AND PUSH1 0x0 SWAP1 DUP2 MSTORE PUSH1 0xFD PUSH1 0x20 MSTORE PUSH1 0x40 DUP2 KECCAK256 SLOAD DUP2 SWAP1 PUSH2 0x5AD SWAP1 TIMESTAMP PUSH2 0x145F JUMP JUMPDEST SWAP1 POP DUP1 ISZERO DUP1 PUSH2 0x5D2 JUMPI POP PUSH1 0x1 PUSH1 0x1 PUSH1 0xA0 SHL SUB DUP4 AND PUSH1 0x0 SWAP1 DUP2 MSTORE PUSH1 0xFB PUSH1 0x20 MSTORE PUSH1 0x40 SWAP1 KECCAK256 SLOAD ISZERO JUMPDEST ISZERO PUSH2 0x5F4 JUMPI POP POP PUSH1 0x1 PUSH1 0x1 PUSH1 0xA0 SHL SUB AND PUSH1 0x0 SWAP1 DUP2 MSTORE PUSH1 0xFC PUSH1 0x20 MSTORE PUSH1 0x40 SWAP1 KECCAK256 SLOAD SWAP1 JUMP JUMPDEST PUSH1 0xFF SLOAD PUSH1 0x1 PUSH1 0x1 PUSH1 0xA0 SHL SUB DUP5 AND PUSH1 0x0 SWAP1 DUP2 MSTORE PUSH1 0xFB PUSH1 0x20 MSTORE PUSH1 0x40 DUP2 KECCAK256 SLOAD SWAP1 SWAP2 PUSH8 0xDE0B6B3A7640000 SWAP2 DUP5 SWAP2 PUSH2 0x627 SWAP2 PUSH2 0x1472 JUMP JUMPDEST PUSH2 0x631 SWAP2 SWAP1 PUSH2 0x1472 JUMP JUMPDEST PUSH2 0x63B SWAP2 SWAP1 PUSH2 0x1489 JUMP JUMPDEST PUSH1 0x1 PUSH1 0x1 PUSH1 0xA0 SHL SUB DUP6 AND PUSH1 0x0 SWAP1 DUP2 MSTORE PUSH1 0xFC PUSH1 0x20 MSTORE PUSH1 0x40 SWAP1 KECCAK256 SLOAD SWAP1 SWAP2 POP PUSH2 0x662 SWAP1 DUP3 SWAP1 PUSH2 0x144C JUMP JUMPDEST SWAP5 SWAP4 POP POP POP POP JUMP JUMPDEST PUSH1 0x1 PUSH1 0x1 PUSH1 0xA0 SHL SUB PUSH32 0x0 AND ADDRESS SUB PUSH2 0x6B2 JUMPI PUSH1 0x40 MLOAD PUSH3 0x461BCD PUSH1 0xE5 SHL DUP2 MSTORE PUSH1 0x4 ADD PUSH2 0x3AD SWAP1 PUSH2 0x14AB JUMP JUMPDEST PUSH32 0x0 PUSH1 0x1 PUSH1 0x1 PUSH1 0xA0 SHL SUB AND PUSH2 0x6FB PUSH1 0x0 DUP1 MLOAD PUSH1 0x20 PUSH2 0x1612 DUP4 CODECOPY DUP2 MLOAD SWAP2 MSTORE SLOAD PUSH1 0x1 PUSH1 0x1 PUSH1 0xA0 SHL SUB AND SWAP1 JUMP JUMPDEST PUSH1 0x1 PUSH1 0x1 PUSH1 0xA0 SHL SUB AND EQ PUSH2 0x721 JUMPI PUSH1 0x40 MLOAD PUSH3 0x461BCD PUSH1 0xE5 SHL DUP2 MSTORE PUSH1 0x4 ADD PUSH2 0x3AD SWAP1 PUSH2 0x14F7 JUMP JUMPDEST PUSH2 0x72A DUP2 PUSH2 0xD6C JUMP JUMPDEST PUSH1 0x40 DUP1 MLOAD PUSH1 0x0 DUP1 DUP3 MSTORE PUSH1 0x20 DUP3 ADD SWAP1 SWAP3 MSTORE PUSH2 0x585 SWAP2 DUP4 SWAP2 SWAP1 PUSH2 0xD74 JUMP JUMPDEST PUSH1 0x1 PUSH1 0x1 PUSH1 0xA0 SHL SUB PUSH32 0x0 AND ADDRESS SUB PUSH2 0x78E JUMPI PUSH1 0x40 MLOAD PUSH3 0x461BCD PUSH1 0xE5 SHL DUP2 MSTORE PUSH1 0x4 ADD PUSH2 0x3AD SWAP1 PUSH2 0x14AB JUMP JUMPDEST PUSH32 0x0 PUSH1 0x1 PUSH1 0x1 PUSH1 0xA0 SHL SUB AND PUSH2 0x7D7 PUSH1 0x0 DUP1 MLOAD PUSH1 0x20 PUSH2 0x1612 DUP4 CODECOPY DUP2 MLOAD SWAP2 MSTORE SLOAD PUSH1 0x1 PUSH1 0x1 PUSH1 0xA0 SHL SUB AND SWAP1 JUMP JUMPDEST PUSH1 0x1 PUSH1 0x1 PUSH1 0xA0 SHL SUB AND EQ PUSH2 0x7FD JUMPI PUSH1 0x40 MLOAD PUSH3 0x461BCD PUSH1 0xE5 SHL DUP2 MSTORE PUSH1 0x4 ADD PUSH2 0x3AD SWAP1 PUSH2 0x14F7 JUMP JUMPDEST PUSH2 0x806 DUP3 PUSH2 0xD6C JUMP JUMPDEST PUSH2 0x812 DUP3 DUP3 PUSH1 0x1 PUSH2 0xD74 JUMP JUMPDEST POP POP JUMP JUMPDEST PUSH1 0x0 ADDRESS PUSH1 0x1 PUSH1 0x1 PUSH1 0xA0 SHL SUB PUSH32 0x0 AND EQ PUSH2 0x8B6 JUMPI PUSH1 0x40 MLOAD PUSH3 0x461BCD PUSH1 0xE5 SHL DUP2 MSTORE PUSH1 0x20 PUSH1 0x4 DUP3 ADD MSTORE PUSH1 0x38 PUSH1 0x24 DUP3 ADD MSTORE PUSH32 0x555550535570677261646561626C653A206D757374206E6F742062652063616C PUSH1 0x44 DUP3 ADD MSTORE PUSH32 0x6C6564207468726F7567682064656C656761746563616C6C0000000000000000 PUSH1 0x64 DUP3 ADD MSTORE PUSH1 0x84 ADD PUSH2 0x3AD JUMP JUMPDEST POP PUSH1 0x0 DUP1 MLOAD PUSH1 0x20 PUSH2 0x1612 DUP4 CODECOPY DUP2 MLOAD SWAP2 MSTORE SWAP1 JUMP JUMPDEST PUSH2 0x8D1 PUSH2 0xEE4 JUMP JUMPDEST PUSH1 0xFF SLOAD PUSH2 0x8DF SWAP1 PUSH1 0x2 PUSH2 0x1472 JUMP JUMPDEST PUSH1 0xFF SSTORE JUMP JUMPDEST PUSH1 0x0 SLOAD PUSH1 0x2 SWAP1 PUSH2 0x100 SWAP1 DIV PUSH1 0xFF AND ISZERO DUP1 ISZERO PUSH2 0x906 JUMPI POP PUSH1 0x0 SLOAD PUSH1 0xFF DUP1 DUP4 AND SWAP2 AND LT JUMPDEST PUSH2 0x922 JUMPI PUSH1 0x40 MLOAD PUSH3 0x461BCD PUSH1 0xE5 SHL DUP2 MSTORE PUSH1 0x4 ADD PUSH2 0x3AD SWAP1 PUSH2 0x1543 JUMP JUMPDEST PUSH1 0x0 DUP1 SLOAD PUSH2 0xFFFF NOT AND PUSH1 0xFF DUP4 AND SWAP1 DUP2 OR PUSH2 0x100 OR PUSH2 0xFF00 NOT AND SWAP1 SWAP2 SSTORE PUSH1 0x40 MLOAD SWAP1 DUP2 MSTORE PUSH32 0x7F26B83FF96E1F2B6A682F133852F6798A09C465DA95921460CEFB3847402498 SWAP1 PUSH1 0x20 ADD JUMPDEST PUSH1 0x40 MLOAD DUP1 SWAP2 SUB SWAP1 LOG1 POP JUMP JUMPDEST PUSH2 0x97D PUSH2 0xEE4 JUMP JUMPDEST PUSH2 0x987 PUSH1 0x0 PUSH2 0xF3E JUMP JUMPDEST JUMP JUMPDEST PUSH2 0x991 PUSH2 0xEE4 JUMP JUMPDEST PUSH1 0xFF DUP2 SWAP1 SSTORE PUSH1 0x40 MLOAD DUP2 DUP2 MSTORE PUSH32 0x2DC77EFCEF672C24DE8314E0BC5C0937B13D1D8C4CCEA4ACF5246EDF821B93D5 SWAP1 PUSH1 0x20 ADD PUSH2 0x96A JUMP JUMPDEST PUSH2 0x9CE PUSH2 0xBFA JUMP JUMPDEST PUSH1 0x0 CALLVALUE GT PUSH2 0xA0D JUMPI PUSH1 0x40 MLOAD PUSH3 0x461BCD PUSH1 0xE5 SHL DUP2 MSTORE PUSH1 0x20 PUSH1 0x4 DUP3 ADD MSTORE PUSH1 0xC PUSH1 0x24 DUP3 ADD MSTORE PUSH12 0x16915493D7D1115413D4D255 PUSH1 0xA2 SHL PUSH1 0x44 DUP3 ADD MSTORE PUSH1 0x64 ADD PUSH2 0x3AD JUMP JUMPDEST PUSH2 0xA16 CALLER PUSH2 0xC53 JUMP JUMPDEST CALLER PUSH1 0x0 SWAP1 DUP2 MSTORE PUSH1 0xFB PUSH1 0x20 MSTORE PUSH1 0x40 DUP2 KECCAK256 DUP1 SLOAD CALLVALUE SWAP3 SWAP1 PUSH2 0xA35 SWAP1 DUP5 SWAP1 PUSH2 0x144C JUMP JUMPDEST SWAP3 POP POP DUP2 SWAP1 SSTORE POP CALLVALUE PUSH1 0xFE PUSH1 0x0 DUP3 DUP3 SLOAD PUSH2 0xA4E SWAP2 SWAP1 PUSH2 0x144C JUMP JUMPDEST SWAP1 SWAP2 SSTORE POP POP CALLER PUSH1 0x0 DUP2 DUP2 MSTORE PUSH1 0xFB PUSH1 0x20 SWAP1 DUP2 MSTORE PUSH1 0x40 SWAP2 DUP3 SWAP1 KECCAK256 SLOAD DUP3 MLOAD CALLVALUE DUP2 MSTORE SWAP2 DUP3 ADD MSTORE PUSH32 0x73A19DD210F1A7F902193214C0EE91DD35EE5B4D920CBA8D519ECA65A7B488CA SWAP2 ADD PUSH1 0x40 MLOAD DUP1 SWAP2 SUB SWAP1 LOG2 PUSH2 0x987 PUSH1 0x1 PUSH1 0xC9 SSTORE JUMP JUMPDEST PUSH2 0xAAD PUSH2 0xEE4 JUMP JUMPDEST PUSH1 0x1 PUSH1 0x1 PUSH1 0xA0 SHL SUB DUP2 AND PUSH2 0xB12 JUMPI PUSH1 0x40 MLOAD PUSH3 0x461BCD PUSH1 0xE5 SHL DUP2 MSTORE PUSH1 0x20 PUSH1 0x4 DUP3 ADD MSTORE PUSH1 0x26 PUSH1 0x24 DUP3 ADD MSTORE PUSH32 0x4F776E61626C653A206E6577206F776E657220697320746865207A65726F2061 PUSH1 0x44 DUP3 ADD MSTORE PUSH6 0x646472657373 PUSH1 0xD0 SHL PUSH1 0x64 DUP3 ADD MSTORE PUSH1 0x84 ADD PUSH2 0x3AD JUMP JUMPDEST PUSH2 0x585 DUP2 PUSH2 0xF3E JUMP JUMPDEST PUSH1 0x0 SLOAD PUSH2 0x100 SWAP1 DIV PUSH1 0xFF AND ISZERO DUP1 DUP1 ISZERO PUSH2 0xB3B JUMPI POP PUSH1 0x0 SLOAD PUSH1 0x1 PUSH1 0xFF SWAP1 SWAP2 AND LT JUMPDEST DUP1 PUSH2 0xB55 JUMPI POP ADDRESS EXTCODESIZE ISZERO DUP1 ISZERO PUSH2 0xB55 JUMPI POP PUSH1 0x0 SLOAD PUSH1 0xFF AND PUSH1 0x1 EQ JUMPDEST PUSH2 0xB71 JUMPI PUSH1 0x40 MLOAD PUSH3 0x461BCD PUSH1 0xE5 SHL DUP2 MSTORE PUSH1 0x4 ADD PUSH2 0x3AD SWAP1 PUSH2 0x1543 JUMP JUMPDEST PUSH1 0x0 DUP1 SLOAD PUSH1 0xFF NOT AND PUSH1 0x1 OR SWAP1 SSTORE DUP1 ISZERO PUSH2 0xB94 JUMPI PUSH1 0x0 DUP1 SLOAD PUSH2 0xFF00 NOT AND PUSH2 0x100 OR SWAP1 SSTORE JUMPDEST PUSH2 0xB9C PUSH2 0xF90 JUMP JUMPDEST PUSH2 0xBA4 PUSH2 0xFBF JUMP JUMPDEST PUSH2 0xBAC PUSH2 0xFE6 JUMP JUMPDEST PUSH1 0xFF DUP3 SWAP1 SSTORE DUP1 ISZERO PUSH2 0x812 JUMPI PUSH1 0x0 DUP1 SLOAD PUSH2 0xFF00 NOT AND SWAP1 SSTORE PUSH1 0x40 MLOAD PUSH1 0x1 DUP2 MSTORE PUSH32 0x7F26B83FF96E1F2B6A682F133852F6798A09C465DA95921460CEFB3847402498 SWAP1 PUSH1 0x20 ADD PUSH1 0x40 MLOAD DUP1 SWAP2 SUB SWAP1 LOG1 POP POP JUMP JUMPDEST PUSH1 0x2 PUSH1 0xC9 SLOAD SUB PUSH2 0xC4C JUMPI PUSH1 0x40 MLOAD PUSH3 0x461BCD PUSH1 0xE5 SHL DUP2 MSTORE PUSH1 0x20 PUSH1 0x4 DUP3 ADD MSTORE PUSH1 0x1F PUSH1 0x24 DUP3 ADD MSTORE PUSH32 0x5265656E7472616E637947756172643A207265656E7472616E742063616C6C00 PUSH1 0x44 DUP3 ADD MSTORE PUSH1 0x64 ADD PUSH2 0x3AD JUMP JUMPDEST PUSH1 0x2 PUSH1 0xC9 SSTORE JUMP JUMPDEST PUSH1 0x1 PUSH1 0x1 PUSH1 0xA0 SHL SUB DUP2 AND PUSH1 0x0 SWAP1 DUP2 MSTORE PUSH1 0xFD PUSH1 0x20 MSTORE PUSH1 0x40 DUP2 KECCAK256 SLOAD TIMESTAMP SWAP2 DUP2 SWAP1 SUB PUSH2 0xC92 JUMPI POP PUSH1 0x1 PUSH1 0x1 PUSH1 0xA0 SHL SUB SWAP1 SWAP2 AND PUSH1 0x0 SWAP1 DUP2 MSTORE PUSH1 0xFD PUSH1 0x20 MSTORE PUSH1 0x40 SWAP1 KECCAK256 SSTORE JUMP JUMPDEST PUSH1 0x0 PUSH2 0xC9E DUP3 DUP5 PUSH2 0x145F JUMP JUMPDEST SWAP1 POP PUSH1 0x0 DUP2 GT DUP1 ISZERO PUSH2 0xCC7 JUMPI POP PUSH1 0x1 PUSH1 0x1 PUSH1 0xA0 SHL SUB DUP5 AND PUSH1 0x0 SWAP1 DUP2 MSTORE PUSH1 0xFB PUSH1 0x20 MSTORE PUSH1 0x40 SWAP1 KECCAK256 SLOAD ISZERO ISZERO JUMPDEST ISZERO PUSH2 0xD47 JUMPI PUSH1 0xFF SLOAD PUSH1 0x1 PUSH1 0x1 PUSH1 0xA0 SHL SUB DUP6 AND PUSH1 0x0 SWAP1 DUP2 MSTORE PUSH1 0xFB PUSH1 0x20 MSTORE PUSH1 0x40 DUP2 KECCAK256 SLOAD SWAP1 SWAP2 PUSH8 0xDE0B6B3A7640000 SWAP2 DUP5 SWAP2 PUSH2 0xCFF SWAP2 PUSH2 0x1472 JUMP JUMPDEST PUSH2 0xD09 SWAP2 SWAP1 PUSH2 0x1472 JUMP JUMPDEST PUSH2 0xD13 SWAP2 SWAP1 PUSH2 0x1489 JUMP JUMPDEST PUSH1 0x1 PUSH1 0x1 PUSH1 0xA0 SHL SUB DUP7 AND PUSH1 0x0 SWAP1 DUP2 MSTORE PUSH1 0xFC PUSH1 0x20 MSTORE PUSH1 0x40 DUP2 KECCAK256 DUP1 SLOAD SWAP3 SWAP4 POP DUP4 SWAP3 SWAP1 SWAP2 SWAP1 PUSH2 0xD40 SWAP1 DUP5 SWAP1 PUSH2 0x144C JUMP JUMPDEST SWAP1 SWAP2 SSTORE POP POP POP JUMPDEST POP POP PUSH1 0x1 PUSH1 0x1 PUSH1 0xA0 SHL SUB SWAP1 SWAP2 AND PUSH1 0x0 SWAP1 DUP2 MSTORE PUSH1 0xFD PUSH1 0x20 MSTORE PUSH1 0x40 SWAP1 KECCAK256 SSTORE JUMP JUMPDEST PUSH1 0x1 PUSH1 0xC9 SSTORE JUMP JUMPDEST PUSH2 0x585 PUSH2 0xEE4 JUMP JUMPDEST PUSH32 0x4910FDFA16FED3260ED0E7147F7CC6DA11A60208B5B9406D12A635614FFD9143 SLOAD PUSH1 0xFF AND ISZERO PUSH2 0xDAC JUMPI PUSH2 0xDA7 DUP4 PUSH2 0x1015 JUMP JUMPDEST POP POP POP JUMP JUMPDEST DUP3 PUSH1 0x1 PUSH1 0x1 PUSH1 0xA0 SHL SUB AND PUSH4 0x52D1902D PUSH1 0x40 MLOAD DUP2 PUSH4 0xFFFFFFFF AND PUSH1 0xE0 SHL DUP2 MSTORE PUSH1 0x4 ADD PUSH1 0x20 PUSH1 0x40 MLOAD DUP1 DUP4 SUB DUP2 DUP7 GAS STATICCALL SWAP3 POP POP POP DUP1 ISZERO PUSH2 0xE06 JUMPI POP PUSH1 0x40 DUP1 MLOAD PUSH1 0x1F RETURNDATASIZE SWAP1 DUP2 ADD PUSH1 0x1F NOT AND DUP3 ADD SWAP1 SWAP3 MSTORE PUSH2 0xE03 SWAP2 DUP2 ADD SWAP1 PUSH2 0x1591 JUMP JUMPDEST PUSH1 0x1 JUMPDEST PUSH2 0xE69 JUMPI PUSH1 0x40 MLOAD PUSH3 0x461BCD PUSH1 0xE5 SHL DUP2 MSTORE PUSH1 0x20 PUSH1 0x4 DUP3 ADD MSTORE PUSH1 0x2E PUSH1 0x24 DUP3 ADD MSTORE PUSH32 0x45524331393637557067726164653A206E657720696D706C656D656E74617469 PUSH1 0x44 DUP3 ADD MSTORE PUSH14 0x6F6E206973206E6F742055555053 PUSH1 0x90 SHL PUSH1 0x64 DUP3 ADD MSTORE PUSH1 0x84 ADD PUSH2 0x3AD JUMP JUMPDEST PUSH1 0x0 DUP1 MLOAD PUSH1 0x20 PUSH2 0x1612 DUP4 CODECOPY DUP2 MLOAD SWAP2 MSTORE DUP2 EQ PUSH2 0xED8 JUMPI PUSH1 0x40 MLOAD PUSH3 0x461BCD PUSH1 0xE5 SHL DUP2 MSTORE PUSH1 0x20 PUSH1 0x4 DUP3 ADD MSTORE PUSH1 0x29 PUSH1 0x24 DUP3 ADD MSTORE PUSH32 0x45524331393637557067726164653A20756E737570706F727465642070726F78 PUSH1 0x44 DUP3 ADD MSTORE PUSH9 0x1A58589B1955555251 PUSH1 0xBA SHL PUSH1 0x64 DUP3 ADD MSTORE PUSH1 0x84 ADD PUSH2 0x3AD JUMP JUMPDEST POP PUSH2 0xDA7 DUP4 DUP4 DUP4 PUSH2 0x10B1 JUMP JUMPDEST PUSH1 0x97 SLOAD PUSH1 0x1 PUSH1 0x1 PUSH1 0xA0 SHL SUB AND CALLER EQ PUSH2 0x987 JUMPI PUSH1 0x40 MLOAD PUSH3 0x461BCD PUSH1 0xE5 SHL DUP2 MSTORE PUSH1 0x20 PUSH1 0x4 DUP3 ADD DUP2 SWAP1 MSTORE PUSH1 0x24 DUP3 ADD MSTORE PUSH32 0x4F776E61626C653A2063616C6C6572206973206E6F7420746865206F776E6572 PUSH1 0x44 DUP3 ADD MSTORE PUSH1 0x64 ADD PUSH2 0x3AD JUMP JUMPDEST PUSH1 0x97 DUP1 SLOAD PUSH1 0x1 PUSH1 0x1 PUSH1 0xA0 SHL SUB DUP4 DUP2 AND PUSH1 0x1 PUSH1 0x1 PUSH1 0xA0 SHL SUB NOT DUP4 AND DUP2 OR SWAP1 SWAP4 SSTORE PUSH1 0x40 MLOAD SWAP2 AND SWAP2 SWAP1 DUP3 SWAP1 PUSH32 0x8BE0079C531659141344CD1FD0A4F28419497F9722A3DAAFE3B4186F6B6457E0 SWAP1 PUSH1 0x0 SWAP1 LOG3 POP POP JUMP JUMPDEST PUSH1 0x0 SLOAD PUSH2 0x100 SWAP1 DIV PUSH1 0xFF AND PUSH2 0xFB7 JUMPI PUSH1 0x40 MLOAD PUSH3 0x461BCD PUSH1 0xE5 SHL DUP2 MSTORE PUSH1 0x4 ADD PUSH2 0x3AD SWAP1 PUSH2 0x15AA JUMP JUMPDEST PUSH2 0x987 PUSH2 0x10DC JUMP JUMPDEST PUSH1 0x0 SLOAD PUSH2 0x100 SWAP1 DIV PUSH1 0xFF AND PUSH2 0x987 JUMPI PUSH1 0x40 MLOAD PUSH3 0x461BCD PUSH1 0xE5 SHL DUP2 MSTORE PUSH1 0x4 ADD PUSH2 0x3AD SWAP1 PUSH2 0x15AA JUMP JUMPDEST PUSH1 0x0 SLOAD PUSH2 0x100 SWAP1 DIV PUSH1 0xFF AND PUSH2 0x100D JUMPI PUSH1 0x40 MLOAD PUSH3 0x461BCD PUSH1 0xE5 SHL DUP2 MSTORE PUSH1 0x4 ADD PUSH2 0x3AD SWAP1 PUSH2 0x15AA JUMP JUMPDEST PUSH2 0x987 PUSH2 0x110C JUMP JUMPDEST PUSH1 0x1 PUSH1 0x1 PUSH1 0xA0 SHL SUB DUP2 AND EXTCODESIZE PUSH2 0x1082 JUMPI PUSH1 0x40 MLOAD PUSH3 0x461BCD PUSH1 0xE5 SHL DUP2 MSTORE PUSH1 0x20 PUSH1 0x4 DUP3 ADD MSTORE PUSH1 0x2D PUSH1 0x24 DUP3 ADD MSTORE PUSH32 0x455243313936373A206E657720696D706C656D656E746174696F6E206973206E PUSH1 0x44 DUP3 ADD MSTORE PUSH13 0x1BDD08184818DBDB9D1C9858DD PUSH1 0x9A SHL PUSH1 0x64 DUP3 ADD MSTORE PUSH1 0x84 ADD PUSH2 0x3AD JUMP JUMPDEST PUSH1 0x0 DUP1 MLOAD PUSH1 0x20 PUSH2 0x1612 DUP4 CODECOPY DUP2 MLOAD SWAP2 MSTORE DUP1 SLOAD PUSH1 0x1 PUSH1 0x1 PUSH1 0xA0 SHL SUB NOT AND PUSH1 0x1 PUSH1 0x1 PUSH1 0xA0 SHL SUB SWAP3 SWAP1 SWAP3 AND SWAP2 SWAP1 SWAP2 OR SWAP1 SSTORE JUMP JUMPDEST PUSH2 0x10BA DUP4 PUSH2 0x1133 JUMP JUMPDEST PUSH1 0x0 DUP3 MLOAD GT DUP1 PUSH2 0x10C7 JUMPI POP DUP1 JUMPDEST ISZERO PUSH2 0xDA7 JUMPI PUSH2 0x10D6 DUP4 DUP4 PUSH2 0x1173 JUMP JUMPDEST POP POP POP POP JUMP JUMPDEST PUSH1 0x0 SLOAD PUSH2 0x100 SWAP1 DIV PUSH1 0xFF AND PUSH2 0x1103 JUMPI PUSH1 0x40 MLOAD PUSH3 0x461BCD PUSH1 0xE5 SHL DUP2 MSTORE PUSH1 0x4 ADD PUSH2 0x3AD SWAP1 PUSH2 0x15AA JUMP JUMPDEST PUSH2 0x987 CALLER PUSH2 0xF3E JUMP JUMPDEST PUSH1 0x0 SLOAD PUSH2 0x100 SWAP1 DIV PUSH1 0xFF AND PUSH2 0xD65 JUMPI PUSH1 0x40 MLOAD PUSH3 0x461BCD PUSH1 0xE5 SHL DUP2 MSTORE PUSH1 0x4 ADD PUSH2 0x3AD SWAP1 PUSH2 0x15AA JUMP JUMPDEST PUSH2 0x113C DUP2 PUSH2 0x1015 JUMP JUMPDEST PUSH1 0x40 MLOAD PUSH1 0x1 PUSH1 0x1 PUSH1 0xA0 SHL SUB DUP3 AND SWAP1 PUSH32 0xBC7CD75A20EE27FD9ADEBAB32041F755214DBC6BFFA90CC0225B39DA2E5C2D3B SWAP1 PUSH1 0x0 SWAP1 LOG2 POP JUMP JUMPDEST PUSH1 0x60 PUSH2 0x1198 DUP4 DUP4 PUSH1 0x40 MLOAD DUP1 PUSH1 0x60 ADD PUSH1 0x40 MSTORE DUP1 PUSH1 0x27 DUP2 MSTORE PUSH1 0x20 ADD PUSH2 0x1632 PUSH1 0x27 SWAP2 CODECOPY PUSH2 0x11A1 JUMP JUMPDEST SWAP1 POP JUMPDEST SWAP3 SWAP2 POP POP JUMP JUMPDEST PUSH1 0x60 PUSH1 0x0 DUP1 DUP6 PUSH1 0x1 PUSH1 0x1 PUSH1 0xA0 SHL SUB AND DUP6 PUSH1 0x40 MLOAD PUSH2 0x11BE SWAP2 SWAP1 PUSH2 0x15F5 JUMP JUMPDEST PUSH1 0x0 PUSH1 0x40 MLOAD DUP1 DUP4 SUB DUP2 DUP6 GAS DELEGATECALL SWAP2 POP POP RETURNDATASIZE DUP1 PUSH1 0x0 DUP2 EQ PUSH2 0x11F9 JUMPI PUSH1 0x40 MLOAD SWAP2 POP PUSH1 0x1F NOT PUSH1 0x3F RETURNDATASIZE ADD AND DUP3 ADD PUSH1 0x40 MSTORE RETURNDATASIZE DUP3 MSTORE RETURNDATASIZE PUSH1 0x0 PUSH1 0x20 DUP5 ADD RETURNDATACOPY PUSH2 0x11FE JUMP JUMPDEST PUSH1 0x60 SWAP2 POP JUMPDEST POP SWAP2 POP SWAP2 POP PUSH2 0x120F DUP7 DUP4 DUP4 DUP8 PUSH2 0x1219 JUMP JUMPDEST SWAP7 SWAP6 POP POP POP POP POP POP JUMP JUMPDEST PUSH1 0x60 DUP4 ISZERO PUSH2 0x1288 JUMPI DUP3 MLOAD PUSH1 0x0 SUB PUSH2 0x1281 JUMPI PUSH1 0x1 PUSH1 0x1 PUSH1 0xA0 SHL SUB DUP6 AND EXTCODESIZE PUSH2 0x1281 JUMPI PUSH1 0x40 MLOAD PUSH3 0x461BCD PUSH1 0xE5 SHL DUP2 MSTORE PUSH1 0x20 PUSH1 0x4 DUP3 ADD MSTORE PUSH1 0x1D PUSH1 0x24 DUP3 ADD MSTORE PUSH32 0x416464726573733A2063616C6C20746F206E6F6E2D636F6E7472616374000000 PUSH1 0x44 DUP3 ADD MSTORE PUSH1 0x64 ADD PUSH2 0x3AD JUMP JUMPDEST POP DUP2 PUSH2 0x662 JUMP JUMPDEST PUSH2 0x662 DUP4 DUP4 DUP2 MLOAD ISZERO PUSH2 0x129D JUMPI DUP2 MLOAD DUP1 DUP4 PUSH1 0x20 ADD REVERT JUMPDEST DUP1 PUSH1 0x40 MLOAD PUSH3 0x461BCD PUSH1 0xE5 SHL DUP2 MSTORE PUSH1 0x4 ADD PUSH2 0x3AD SWAP2 SWAP1 PUSH2 0x1403 JUMP JUMPDEST DUP1 CALLDATALOAD PUSH1 0x1 PUSH1 0x1 PUSH1 0xA0 SHL SUB DUP2 AND DUP2 EQ PUSH2 0x12CE JUMPI PUSH1 0x0 DUP1 REVERT JUMPDEST SWAP2 SWAP1 POP JUMP JUMPDEST PUSH1 0x0 PUSH1 0x20 DUP3 DUP5 SUB SLT ISZERO PUSH2 0x12E5 JUMPI PUSH1 0x0 DUP1 REVERT JUMPDEST PUSH2 0x1198 DUP3 PUSH2 0x12B7 JUMP JUMPDEST PUSH1 0x0 PUSH1 0x20 DUP3 DUP5 SUB SLT ISZERO PUSH2 0x1300 JUMPI PUSH1 0x0 DUP1 REVERT JUMPDEST POP CALLDATALOAD SWAP2 SWAP1 POP JUMP JUMPDEST PUSH4 0x4E487B71 PUSH1 0xE0 SHL PUSH1 0x0 MSTORE PUSH1 0x41 PUSH1 0x4 MSTORE PUSH1 0x24 PUSH1 0x0 REVERT JUMPDEST PUSH1 0x0 DUP1 PUSH1 0x40 DUP4 DUP6 SUB SLT ISZERO PUSH2 0x1330 JUMPI PUSH1 0x0 DUP1 REVERT JUMPDEST PUSH2 0x1339 DUP4 PUSH2 0x12B7 JUMP JUMPDEST SWAP2 POP PUSH1 0x20 DUP4 ADD CALLDATALOAD PUSH8 0xFFFFFFFFFFFFFFFF DUP1 DUP3 GT ISZERO PUSH2 0x1356 JUMPI PUSH1 0x0 DUP1 REVERT JUMPDEST DUP2 DUP6 ADD SWAP2 POP DUP6 PUSH1 0x1F DUP4 ADD SLT PUSH2 0x136A JUMPI PUSH1 0x0 DUP1 REVERT JUMPDEST DUP2 CALLDATALOAD DUP2 DUP2 GT ISZERO PUSH2 0x137C JUMPI PUSH2 0x137C PUSH2 0x1307 JUMP JUMPDEST PUSH1 0x40 MLOAD PUSH1 0x1F DUP3 ADD PUSH1 0x1F NOT SWAP1 DUP2 AND PUSH1 0x3F ADD AND DUP2 ADD SWAP1 DUP4 DUP3 GT DUP2 DUP4 LT OR ISZERO PUSH2 0x13A4 JUMPI PUSH2 0x13A4 PUSH2 0x1307 JUMP JUMPDEST DUP2 PUSH1 0x40 MSTORE DUP3 DUP2 MSTORE DUP9 PUSH1 0x20 DUP5 DUP8 ADD ADD GT ISZERO PUSH2 0x13BD JUMPI PUSH1 0x0 DUP1 REVERT JUMPDEST DUP3 PUSH1 0x20 DUP7 ADD PUSH1 0x20 DUP4 ADD CALLDATACOPY PUSH1 0x0 PUSH1 0x20 DUP5 DUP4 ADD ADD MSTORE DUP1 SWAP6 POP POP POP POP POP POP SWAP3 POP SWAP3 SWAP1 POP JUMP JUMPDEST PUSH1 0x0 JUMPDEST DUP4 DUP2 LT ISZERO PUSH2 0x13FA JUMPI DUP2 DUP2 ADD MLOAD DUP4 DUP3 ADD MSTORE PUSH1 0x20 ADD PUSH2 0x13E2 JUMP JUMPDEST POP POP PUSH1 0x0 SWAP2 ADD MSTORE JUMP JUMPDEST PUSH1 0x20 DUP2 MSTORE PUSH1 0x0 DUP3 MLOAD DUP1 PUSH1 0x20 DUP5 ADD MSTORE PUSH2 0x1422 DUP2 PUSH1 0x40 DUP6 ADD PUSH1 0x20 DUP8 ADD PUSH2 0x13DF JUMP JUMPDEST PUSH1 0x1F ADD PUSH1 0x1F NOT AND SWAP2 SWAP1 SWAP2 ADD PUSH1 0x40 ADD SWAP3 SWAP2 POP POP JUMP JUMPDEST PUSH4 0x4E487B71 PUSH1 0xE0 SHL PUSH1 0x0 MSTORE PUSH1 0x11 PUSH1 0x4 MSTORE PUSH1 0x24 PUSH1 0x0 REVERT JUMPDEST DUP1 DUP3 ADD DUP1 DUP3 GT ISZERO PUSH2 0x119B JUMPI PUSH2 0x119B PUSH2 0x1436 JUMP JUMPDEST DUP2 DUP2 SUB DUP2 DUP2 GT ISZERO PUSH2 0x119B JUMPI PUSH2 0x119B PUSH2 0x1436 JUMP JUMPDEST DUP1 DUP3 MUL DUP2 ISZERO DUP3 DUP3 DIV DUP5 EQ OR PUSH2 0x119B JUMPI PUSH2 0x119B PUSH2 0x1436 JUMP JUMPDEST PUSH1 0x0 DUP3 PUSH2 0x14A6 JUMPI PUSH4 0x4E487B71 PUSH1 0xE0 SHL PUSH1 0x0 MSTORE PUSH1 0x12 PUSH1 0x4 MSTORE PUSH1 0x24 PUSH1 0x0 REVERT JUMPDEST POP DIV SWAP1 JUMP JUMPDEST PUSH1 0x20 DUP1 DUP3 MSTORE PUSH1 0x2C SWAP1 DUP3 ADD MSTORE PUSH32 0x46756E6374696F6E206D7573742062652063616C6C6564207468726F75676820 PUSH1 0x40 DUP3 ADD MSTORE PUSH12 0x19195B1959D85D1958D85B1B PUSH1 0xA2 SHL PUSH1 0x60 DUP3 ADD MSTORE PUSH1 0x80 ADD SWAP1 JUMP JUMPDEST PUSH1 0x20 DUP1 DUP3 MSTORE PUSH1 0x2C SWAP1 DUP3 ADD MSTORE PUSH32 0x46756E6374696F6E206D7573742062652063616C6C6564207468726F75676820 PUSH1 0x40 DUP3 ADD MSTORE PUSH12 0x6163746976652070726F7879 PUSH1 0xA0 SHL PUSH1 0x60 DUP3 ADD MSTORE PUSH1 0x80 ADD SWAP1 JUMP JUMPDEST PUSH1 0x20 DUP1 DUP3 MSTORE PUSH1 0x2E SWAP1 DUP3 ADD MSTORE PUSH32 0x496E697469616C697A61626C653A20636F6E747261637420697320616C726561 PUSH1 0x40 DUP3 ADD MSTORE PUSH14 0x191E481A5B9A5D1A585B1A5E9959 PUSH1 0x92 SHL PUSH1 0x60 DUP3 ADD MSTORE PUSH1 0x80 ADD SWAP1 JUMP JUMPDEST PUSH1 0x0 PUSH1 0x20 DUP3 DUP5 SUB SLT ISZERO PUSH2 0x15A3 JUMPI PUSH1 0x0 DUP1 REVERT JUMPDEST POP MLOAD SWAP2 SWAP1 POP JUMP JUMPDEST PUSH1 0x20 DUP1 DUP3 MSTORE PUSH1 0x2B SWAP1 DUP3 ADD MSTORE PUSH32 0x496E697469616C697A61626C653A20636F6E7472616374206973206E6F742069 PUSH1 0x40 DUP3 ADD MSTORE PUSH11 0x6E697469616C697A696E67 PUSH1 0xA8 SHL PUSH1 0x60 DUP3 ADD MSTORE PUSH1 0x80 ADD SWAP1 JUMP JUMPDEST PUSH1 0x0 DUP3 MLOAD PUSH2 0x1607 DUP2 DUP5 PUSH1 0x20 DUP8 ADD PUSH2 0x13DF JUMP JUMPDEST SWAP2 SWAP1 SWAP2 ADD SWAP3 SWAP2 POP POP JUMP INVALID CALLDATASIZE ADDMOD SWAP5 LOG1 EXTCODESIZE LOG1 LOG3 0x21 MOD PUSH8 0xC828492DB98DCA3E KECCAK256 PUSH23 0xCC3735A920A3CA505D382BBC416464726573733A206C6F PUSH24 0x2D6C6576656C2064656C65676174652063616C6C20666169 PUSH13 0x6564A264697066735822122063 PUSH13 0xC0773E48FE1E4270E592682A53 CALLER 0xEE 0x2B MSTORE8 0xF6 ADDRESS 0xDA 0xDD 0xB9 0xFB 0xE1 SIGNEXTEND SWAP3 STOP MULMOD STATICCALL SELFBALANCE PUSH5 0x736F6C6343 STOP ADDMOD XOR STOP CALLER "},"methodIdentifiers":{"accruedRewards(address)":"128fced1","deposit()":"d0e30db0","doubleRewardMultiplier()":"587ca245","initialize(uint256)":"fe4b84df","initializeV2()":"5cd8a76b","lastAccrualTimestamp(address)":"16851b36","owner()":"8da5cb5b","pendingRewards(address)":"31d7a262","principalBalance(address)":"e68fc0ee","proxiableUUID()":"52d1902d","renounceOwnership()":"715018a6","rewardMultiplier()":"6f2c590a","totalEthLocked()":"e479c8f7","transferOwnership(address)":"f2fde38b","updateRewardMultiplier(uint256)":"c5b23af5","upgradeTo(address)":"3659cfe6","upgradeToAndCall(address,bytes)":"4f1ef286","version()":"54fd4d50","withdraw(uint256)":"2e1a7d4d"}},"storageLayout":{"storage":[{"astId":505,"contract":"contracts/VaultV2.sol:VaultV2","label":"_initialized","offset":0,"slot":"0","type":"t_uint8"},{"astId":508,"contract":"contracts/VaultV2.sol:VaultV2","label":"_initializing","offset":1,"slot":"0","type":"t_bool"},{"astId":487,"contract":"contracts/VaultV2.sol:VaultV2","label":"__gap","offset":0,"slot":"1","type":"t_array(t_uint256)50_storage"},{"astId":803,"contract":"contracts/VaultV2.sol:VaultV2","label":"__gap","offset":0,"slot":"51","type":"t_array(t_uint256)50_storage"},{"astId":1269,"contract":"contracts/VaultV2.sol:VaultV2","label":"__gap","offset":0,"slot":"101","type":"t_array(t_uint256)50_storage"},{"astId":11,"contract":"contracts/VaultV2.sol:VaultV2","label":"_owner","offset":0,"slot":"151","type":"t_address"},{"astId":131,"contract":"contracts/VaultV2.sol:VaultV2","label":"__gap","offset":0,"slot":"152","type":"t_array(t_uint256)49_storage"},{"astId":819,"contract":"contracts/VaultV2.sol:VaultV2","label":"_status","offset":0,"slot":"201","type":"t_uint256"},{"astId":888,"contract":"contracts/VaultV2.sol:VaultV2","label":"__gap","offset":0,"slot":"202","type":"t_array(t_uint256)49_storage"},{"astId":1402,"contract":"contracts/VaultV2.sol:VaultV2","label":"principalBalance","offset":0,"slot":"251","type":"t_mapping(t_address,t_uint256)"},{"astId":1406,"contract":"contracts/VaultV2.sol:VaultV2","label":"accruedRewards","offset":0,"slot":"252","type":"t_mapping(t_address,t_uint256)"},{"astId":1410,"contract":"contracts/VaultV2.sol:VaultV2","label":"lastAccrualTimestamp","offset":0,"slot":"253","type":"t_mapping(t_address,t_uint256)"},{"astId":1412,"contract":"contracts/VaultV2.sol:VaultV2","label":"totalEthLocked","offset":0,"slot":"254","type":"t_uint256"},{"astId":1414,"contract":"contracts/VaultV2.sol:VaultV2","label":"rewardMultiplier","offset":0,"slot":"255","type":"t_uint256"}],"types":{"t_address":{"encoding":"inplace","label":"address","numberOfBytes":"20"},"t_array(t_uint256)49_storage":{"base":"t_uint256","encoding":"inplace","label":"uint256[49]","numberOfBytes":"1568"},"t_array(t_uint256)50_storage":{"base":"t_uint256","encoding":"inplace","label":"uint256[50]","numberOfBytes":"1600"},"t_bool":{"encoding":"inplace","label":"bool","numberOfBytes":"1"},"t_mapping(t_address,t_uint256)":{"encoding":"mapping","key":"t_address","label":"mapping(address => uint256)","numberOfBytes":"32","value":"t_uint256"},"t_uint256":{"encoding":"inplace","label":"uint256","numberOfBytes":"32"},"t_uint8":{"encoding":"inplace","label":"uint8","numberOfBytes":"1"}}}}}}