{
  "_format": "hh-sol-artifact-1",
  "contractName": "VaultV2",
  "sourceName": "contracts/VaultV2.sol",
  "abi": [
    {
      "anonymous": false,
      "inputs": [
        {
          "indexed": false,
          "internalType": "address",
          "name": "previousAdmin",
          "type": "address"
        },
        {
          "indexed": false,
          "internalType": "address",
          "name": "newAdmin",
          "type": "address"
        }
      ],
      "name": "AdminChanged",
      "type": "event"
    },
    {
      "anonymous": false,
      "inputs": [
        {
          "indexed": true,
          "internalType": "address",
          "name": "beacon",
          "type": "address"
        }
      ],
      "name": "BeaconUpgraded",
      "type": "event"
    },
    {
      "anonymous": false,
      "inputs": [
        {
          "indexed": true,
          "internalType": "address",
          "name": "user",
          "type": "address"
        },
        {
          "indexed": false,
          "internalType": "uint256",
          "name": "amount",
          "type": "uint256"
        },
        {
          "indexed": false,
          "internalType": "uint256",
          "name": "principalAfter",
          "type": "uint256"
        }
      ],
      "name": "Deposited",
      "type": "event"
    },
    {
      "anonymous": false,
      "inputs": [
        {
          "indexed": false,
          "internalType": "uint8",
          "name": "version",
          "type": "uint8"
        }
      ],
      "name": "Initialized",
      "type": "event"
    },
    {
      "anonymous": false,
      "inputs": [
        {
          "indexed": true,
          "internalType": "address",
          "name": "previousOwner",
          "type": "address"
        },
        {
          "indexed": true,
          "internalType": "address",
          "name": "newOwner",
          "type": "address"
        }
      ],
      "name": "OwnershipTransferred",
      "type": "event"
    },
    {
      "anonymous": false,
      "inputs": [
        {
          "indexed": false,
          "internalType": "uint256",
          "name": "newMultiplier",
          "type": "uint256"
        }
      ],
      "name": "RewardMultiplierUpdated",
      "type": "event"
    },
    {
      "anonymous": false,
      "inputs": [
        {
          "indexed": true,
          "internalType": "address",
          "name": "implementation",
          "type": "address"
        }
      ],
      "name": "Upgraded",
      "type": "event"
    },
    {
      "anonymous": false,
      "inputs": [
        {
          "indexed": true,
          "internalType": "address",
          "name": "user",
          "type": "address"
        },
        {
          "indexed": false,
          "internalType": "uint256",
          "name": "amount",
          "type": "uint256"
        },
        {
          "indexed": false,
          "internalType": "uint256",
          "name": "principalAfter",
          "type": "uint256"
        }
      ],
      "name": "Withdrawn",
      "type": "event"
    },
    {
      "inputs": [
        {
          "internalType": "address",
          "name": "",
          "type": "address"
        }
      ],
      "name": "accruedRewards",
      "outputs": [
        {
          "internalType": "uint256",
          "name": "",
          "type": "uint256"
        }
      ],
      "stateMutability": "view",
      "type": "function"
    },
    {
      "inputs": [],
      "name": "deposit",
      "outputs": [],
      "stateMutability": "payable",
      "type": "function"
    },
    {
      "inputs": [],
      "name": "doubleRewardMultiplier",
      "outputs": [],
      "stateMutability": "nonpayable",
      "type": "function"
    },
    {
      "inputs": [
        {
          "internalType": "uint256",
          "name": "initialRewardMultiplier",
          "type": "uint256"
        }
      ],
      "name": "initialize",
      "outputs": [],
      "stateMutability": "nonpayable",
      "type": "function"
    },
    {
      "inputs": [],
      "name": "initializeV2",
      "outputs": [],
      "stateMutability": "nonpayable",
      "type": "function"
    },
    {
      "inputs": [
        {
          "internalType": "address",
          "name": "",
          "type": "address"
        }
      ],
      "name": "lastAccrualTimestamp",
      "outputs": [
        {
          "internalType": "uint256",
          "name": "",
          "type": "uint256"
        }
      ],
      "stateMutability": "view",
      "type": "function"
    },
    {
      "inputs": [],
      "name": "owner",
      "outputs": [
        {
          "internalType": "address",
          "name": "",
          "type": "address"
        }
      ],
      "stateMutability": "view",
      "type": "function"
    },
    {
      "inputs": [
        {
          "internalType": "address",
          "name": "user",
          "type": "address"
        }
      ],
      "name": "pendingRewards",
      "outputs": [
        {
          "internalType": "uint256",
          "name": "",
          "type": "uint256"
        }
      ],
      "stateMutability": "view",
      "type": "function"
    },
    {
      "inputs": [
        {
          "internalType": "address",
          "name": "",
          "type": "address"
        }
      ],
      "name": "principalBalance",
      "outputs": [
        {
          "internalType": "uint256",
          "name": "",
          "type": "uint256"
        }
      ],
      "stateMutability": "view",
      "type": "function"
    },
    {
      "inputs": [],
      "name": "proxiableUUID",
      "outputs": [
        {
          "internalType": "bytes32",
          "name": "",
          "type": "bytes32"
        }
      ],
      "stateMutability": "view",
      "type": "function"
    },
    {
      "inputs": [],
      "name": "renounceOwnership",
      "outputs": [],
      "stateMutability": "nonpayable",
      "type": "function"
    },
    {
      "inputs": [],
      "name": "rewardMultiplier",
      "outputs": [
        {
          "internalType": "uint256",
          "name": "",
          "type": "uint256"
        }
      ],
      "stateMutability": "view",
      "type": "function"
    },
    {
      "inputs": [],
      "name": "totalEthLocked",
      "outputs": [
        {
          "internalType": "uint256",
          "name": "",
          "type": "uint256"
        }
      ],
      "stateMutability": "view",
      "type": "function"
    },
    {
      "inputs": [
        {
          "internalType": "address",
          "name": "newOwner",
          "type": "address"
        }
      ],
      "name": "transferOwnership",
      "outputs": [],
      "stateMutability": "nonpayable",
      "type": "function"
    },
    {
      "inputs": [
        {
          "internalType": "uint256",
          "name": "newMultiplier",
          "type": "uint256"
        }
      ],
      "name": "updateRewardMultiplier",
      "outputs": [],
      "stateMutability": "nonpayable",
      "type": "function"
    },
    {
      "inputs": [
        {
          "internalType": "address",
          "name": "newImplementation",
          "type": "address"
        }
      ],
      "name": "upgradeTo",
      "outputs": [],
      "stateMutability": "nonpayable",
      "type": "function"
    },
    {
      "inputs": [
        {
          "internalType": "address",
          "name": "newImplementation",
          "type": "address"
        },
        {
          "internalType": "bytes",
          "name": "data",
          "type": "bytes"
        }
      ],
      "name": "upgradeToAndCall",
      "outputs": [],
      "stateMutability": "payable",
      "type": "function"
    },
    {
      "inputs": [],
      "name": "version",
      "outputs": [
        {
          "internalType": "string",
          "name": "",
          "type": "string"
        }
      ],
      "stateMutability": "pure",
      "type": "function"
    },
    {
      "inputs": [
        {
          "internalType": "uint256",
          "name": "amount",
          "type": "uint256"
        }
      ],
      "name": "withdraw",
      "outputs": [],
      "stateMutability": "nonpayable",
      "type": "function"
    }
  ],
  "bytecode": "0x60a06040523060805234801561001457600080fd5b5061001d610022565b6100e1565b600054610100900460ff161561008e5760405162461bcd60e51b815260206004820152602760248201527f496e697469616c697a61626c653a20636f6e747261637420697320696e697469604482015266616c697a696e6760c81b606482015260840160405180910390fd5b60005460ff908116146100df576000805460ff191660ff9081179091556040519081527f7f26b83ff96e1f2b6a682f133852f6798a09c465da95921460cefb38474024989060200160405180910390a15b565b60805161168e61011860003960008181610674015281816106b401528181610750015281816107900152610823015261168e6000f3fe6080604052600436106101145760003560e01c80635cd8a76b116100a0578063d0e30db011610064578063d0e30db0146102de578063e479c8f7146102e6578063e68fc0ee146102fc578063f2fde38b14610329578063fe4b84df1461034957600080fd5b80635cd8a76b146102565780636f2c590a1461026b578063715018a6146102815780638da5cb5b14610296578063c5b23af5146102be57600080fd5b80633659cfe6116100e75780633659cfe6146101c85780634f1ef286146101e857806352d1902d146101fb57806354fd4d5014610210578063587ca2451461024157600080fd5b8063128fced11461011957806316851b36146101595780632e1a7d4d1461018657806331d7a262146101a8575b600080fd5b34801561012557600080fd5b506101466101343660046112d3565b60fc6020526000908152604090205481565b6040519081526020015b60405180910390f35b34801561016557600080fd5b506101466101743660046112d3565b60fd6020526000908152604090205481565b34801561019257600080fd5b506101a66101a13660046112ee565b610369565b005b3480156101b457600080fd5b506101466101c33660046112d3565b610588565b3480156101d457600080fd5b506101a66101e33660046112d3565b61066a565b6101a66101f636600461131d565b610746565b34801561020757600080fd5b50610146610816565b34801561021c57600080fd5b5060408051808201825260028152612b1960f11b602082015290516101509190611403565b34801561024d57600080fd5b506101a66108c9565b34801561026257600080fd5b506101a66108e4565b34801561027757600080fd5b5061014660ff5481565b34801561028d57600080fd5b506101a6610975565b3480156102a257600080fd5b506097546040516001600160a01b039091168152602001610150565b3480156102ca57600080fd5b506101a66102d93660046112ee565b610989565b6101a66109c6565b3480156102f257600080fd5b5061014660fe5481565b34801561030857600080fd5b506101466103173660046112d3565b60fb6020526000908152604090205481565b34801561033557600080fd5b506101a66103443660046112d3565b610aa5565b34801561035557600080fd5b506101a66103643660046112ee565b610b1b565b610371610bfa565b600081116103b65760405162461bcd60e51b815260206004820152600d60248201526c5a45524f5f574954484452415760981b60448201526064015b60405180910390fd5b6103bf33610c53565b33600090815260fb602090815260408083205460fc90925282205490916103e6828461144c565b90508381101561042f5760405162461bcd60e51b8152602060048201526014602482015273494e53554646494349454e545f42414c414e434560601b60448201526064016103ad565b60008285111561043f5782610441565b845b9050600061044f828761145f565b905061045b828561145f565b33600090815260fc6020526040902055610475818661145f565b33600090815260fb602052604081209190915560fe805483929061049a90849061145f565b9091555050604051600090339088908381818185875af1925050503d80600081146104e1576040519150601f19603f3d011682016040523d82523d6000602084013e6104e6565b606091505b505090508061052d5760405162461bcd60e51b815260206004820152601360248201527211551217d514905394d1915497d19052531151606a1b60448201526064016103ad565b33600081815260fb60209081526040918290205482518b8152918201527f92ccf450a286a957af52509bc1c9939d1a6a481783e142e41e2499f0bb66ebc6910160405180910390a2505050505050610585600160c955565b50565b6001600160a01b038116600090815260fd602052604081205481906105ad904261145f565b90508015806105d257506001600160a01b038316600090815260fb6020526040902054155b156105f45750506001600160a01b0316600090815260fc602052604090205490565b60ff546001600160a01b038416600090815260fb60205260408120549091670de0b6b3a764000091849161062791611472565b6106319190611472565b61063b9190611489565b6001600160a01b038516600090815260fc602052604090205490915061066290829061144c565b949350505050565b6001600160a01b037f00000000000000000000000000000000000000000000000000000000000000001630036106b25760405162461bcd60e51b81526004016103ad906114ab565b7f00000000000000000000000000000000000000000000000000000000000000006001600160a01b03166106fb600080516020611612833981519152546001600160a01b031690565b6001600160a01b0316146107215760405162461bcd60e51b81526004016103ad906114f7565b61072a81610d6c565b6040805160008082526020820190925261058591839190610d74565b6001600160a01b037f000000000000000000000000000000000000000000000000000000000000000016300361078e5760405162461bcd60e51b81526004016103ad906114ab565b7f00000000000000000000000000000000000000000000000000000000000000006001600160a01b03166107d7600080516020611612833981519152546001600160a01b031690565b6001600160a01b0316146107fd5760405162461bcd60e51b81526004016103ad906114f7565b61080682610d6c565b61081282826001610d74565b5050565b6000306001600160a01b037f000000000000000000000000000000000000000000000000000000000000000016146108b65760405162461bcd60e51b815260206004820152603860248201527f555550535570677261646561626c653a206d757374206e6f742062652063616c60448201527f6c6564207468726f7567682064656c656761746563616c6c000000000000000060648201526084016103ad565b5060008051602061161283398151915290565b6108d1610ee4565b60ff546108df906002611472565b60ff55565b600054600290610100900460ff16158015610906575060005460ff8083169116105b6109225760405162461bcd60e51b81526004016103ad90611543565b6000805461ffff191660ff83169081176101001761ff0019169091556040519081527f7f26b83ff96e1f2b6a682f133852f6798a09c465da95921460cefb3847402498906020015b60405180910390a150565b61097d610ee4565b6109876000610f3e565b565b610991610ee4565b60ff8190556040518181527f2dc77efcef672c24de8314e0bc5c0937b13d1d8c4ccea4acf5246edf821b93d59060200161096a565b6109ce610bfa565b60003411610a0d5760405162461bcd60e51b815260206004820152600c60248201526b16915493d7d1115413d4d25560a21b60448201526064016103ad565b610a1633610c53565b33600090815260fb602052604081208054349290610a3590849061144c565b925050819055503460fe6000828254610a4e919061144c565b909155505033600081815260fb6020908152604091829020548251348152918201527f73a19dd210f1a7f902193214c0ee91dd35ee5b4d920cba8d519eca65a7b488ca910160405180910390a2610987600160c955565b610aad610ee4565b6001600160a01b038116610b125760405162461bcd60e51b815260206004820152602660248201527f4f776e61626c653a206e6577206f776e657220697320746865207a65726f206160448201526564647265737360d01b60648201526084016103ad565b61058581610f3e565b600054610100900460ff1615808015610b3b5750600054600160ff909116105b80610b555750303b158015610b55575060005460ff166001145b610b715760405162461bcd60e51b81526004016103ad90611543565b6000805460ff191660011790558015610b94576000805461ff0019166101001790555b610b9c610f90565b610ba4610fbf565b610bac610fe6565b60ff8290558015610812576000805461ff0019169055604051600181527f7f26b83ff96e1f2b6a682f133852f6798a09c465da95921460cefb38474024989060200160405180910390a15050565b600260c95403610c4c5760405162461bcd60e51b815260206004820152601f60248201527f5265656e7472616e637947756172643a207265656e7472616e742063616c6c0060448201526064016103ad565b600260c955565b6001600160a01b038116600090815260fd60205260408120544291819003610c9257506001600160a01b03909116600090815260fd6020526040902055565b6000610c9e828461145f565b9050600081118015610cc757506001600160a01b038416600090815260fb602052604090205415155b15610d475760ff546001600160a01b038516600090815260fb60205260408120549091670de0b6b3a7640000918491610cff91611472565b610d099190611472565b610d139190611489565b6001600160a01b038616600090815260fc6020526040812080549293508392909190610d4090849061144c565b9091555050505b50506001600160a01b03909116600090815260fd6020526040902055565b600160c955565b610585610ee4565b7f4910fdfa16fed3260ed0e7147f7cc6da11a60208b5b9406d12a635614ffd91435460ff1615610dac57610da783611015565b505050565b826001600160a01b03166352d1902d6040518163ffffffff1660e01b8152600401602060405180830381865afa925050508015610e06575060408051601f3d908101601f19168201909252610e0391810190611591565b60015b610e695760405162461bcd60e51b815260206004820152602e60248201527f45524331393637557067726164653a206e657720696d706c656d656e7461746960448201526d6f6e206973206e6f74205555505360901b60648201526084016103ad565b6000805160206116128339815191528114610ed85760405162461bcd60e51b815260206004820152602960248201527f45524331393637557067726164653a20756e737570706f727465642070726f786044820152681a58589b195555525160ba1b60648201526084016103ad565b50610da78383836110b1565b6097546001600160a01b031633146109875760405162461bcd60e51b815260206004820181905260248201527f4f776e61626c653a2063616c6c6572206973206e6f7420746865206f776e657260448201526064016103ad565b609780546001600160a01b038381166001600160a01b0319831681179093556040519116919082907f8be0079c531659141344cd1fd0a4f28419497f9722a3daafe3b4186f6b6457e090600090a35050565b600054610100900460ff16610fb75760405162461bcd60e51b81526004016103ad906115aa565b6109876110dc565b600054610100900460ff166109875760405162461bcd60e51b81526004016103ad906115aa565b600054610100900460ff1661100d5760405162461bcd60e51b81526004016103ad906115aa565b61098761110c565b6001600160a01b0381163b6110825760405162461bcd60e51b815260206004820152602d60248201527f455243313936373a206e657720696d706c656d656e746174696f6e206973206e60448201526c1bdd08184818dbdb9d1c9858dd609a1b60648201526084016103ad565b60008051602061161283398151915280546001600160a01b0319166001600160a01b0392909216919091179055565b6110ba83611133565b6000825111806110c75750805b15610da7576110d68383611173565b50505050565b600054610100900460ff166111035760405162461bcd60e51b81526004016103ad906115aa565b61098733610f3e565b600054610100900460ff16610d655760405162461bcd60e51b81526004016103ad906115aa565b61113c81611015565b6040516001600160a01b038216907fbc7cd75a20ee27fd9adebab32041f755214dbc6bffa90cc0225b39da2e5c2d3b90600090a250565b60606111988383604051806060016040528060278152602001611632602791396111a1565b90505b92915050565b6060600080856001600160a01b0316856040516111be91906115f5565b600060405180830381855af49150503d80600081146111f9576040519150601f19603f3d011682016040523d82523d6000602084013e6111fe565b606091505b509150915061120f86838387611219565b9695505050505050565b60608315611288578251600003611281576001600160a01b0385163b6112815760405162461bcd60e51b815260206004820152601d60248201527f416464726573733a2063616c6c20746f206e6f6e2d636f6e747261637400000060448201526064016103ad565b5081610662565b610662838381511561129d5781518083602001fd5b8060405162461bcd60e51b81526004016103ad9190611403565b80356001600160a01b03811681146112ce57600080fd5b919050565b6000602082840312156112e557600080fd5b611198826112b7565b60006020828403121561130057600080fd5b5035919050565b634e487b7160e01b600052604160045260246000fd5b6000806040838503121561133057600080fd5b611339836112b7565b9150602083013567ffffffffffffffff8082111561135657600080fd5b818501915085601f83011261136a57600080fd5b81358181111561137c5761137c611307565b604051601f8201601f19908116603f011681019083821181831017156113a4576113a4611307565b816040528281528860208487010111156113bd57600080fd5b8260208601602083013760006020848301015280955050505050509250929050565b60005b838110156113fa5781810151838201526020016113e2565b50506000910152565b60208152600082518060208401526114228160408501602087016113df565b601f01601f19169190910160400192915050565b634e487b7160e01b600052601160045260246000fd5b8082018082111561119b5761119b611436565b8181038181111561119b5761119b611436565b808202811582820484141761119b5761119b611436565b6000826114a657634e487b7160e01b600052601260045260246000fd5b500490565b6020808252602c908201527f46756e6374696f6e206d7573742062652063616c6c6564207468726f7567682060408201526b19195b1959d85d1958d85b1b60a21b606082015260800190565b6020808252602c908201527f46756e6374696f6e206d7573742062652063616c6c6564207468726f7567682060408201526b6163746976652070726f787960a01b606082015260800190565b6020808252602e908201527f496e697469616c697a61626c653a20636f6e747261637420697320616c72656160408201526d191e481a5b9a5d1a585b1a5e995960921b606082015260800190565b6000602082840312156115a357600080fd5b5051919050565b6020808252602b908201527f496e697469616c697a61626c653a20636f6e7472616374206973206e6f74206960408201526a6e697469616c697a696e6760a81b606082015260800190565b600082516116078184602087016113df565b919091019291505056fe360894a13ba1a3210667c828492db98dca3e2076cc3735a920a3ca505d382bbc416464726573733a206c6f772d6c6576656c2064656c65676174652063616c6c206661696c6564a2646970667358221220636cc0773e48fe1e4270e592682a5333ee2b53f630daddb9fbe10b920009fa4764736f6c63430008180033",
  "linkReferences": {},
  "deployedLinkReferences": {}
}