{
  "_format": "hh-sol-artifact-1",
  "contractName": "VaultV1",
  "sourceName": "contracts/VaultV1.sol",
  "abi": [
    {
      "inputs": [],
      "stateMutability": "nonpayable",
      "type": "constructor"
    },
    {
      "anonymous": false,
      "inputs": [
        {
          "indexed": false,
          "internalType": "address",
          "name": "previousAdmin",
          "type": "address"
        },
        {
          "indexed": false,
          "internalType": "address",
          "name": "newAdmin",
          "type": "address"
        }
      ],
      "name": "AdminChanged",
      "type": "event"
    },
    {
      "anonymous": false,
      "inputs": [
        {
          "indexed": true,
          "internalType": "address",
          "name": "beacon",
          "type": "address"
        }
      ],
      "name": "BeaconUpgraded",
      "type": "event"
    },
    {
      "anonymous": false,
      "inputs": [
        {
          "indexed": true,
          "internalType": "address",
          "name": "user",
          "type": "address"
        },
        {
          "indexed": false,
          "internalType": "uint256",
          "name": "amount",
          "type": "uint256"
        },
        {
          "indexed": false,
          "internalType": "uint256",
          "name": "principalAfter",
          "type": "uint256"
        }
      ],
      "name": "Deposited",
      "type": "event"
    },
    {
      "anonymous": false,
      "inputs": [
        {
          "indexed": false,
          "internalType": "uint8",
          "name": "version",
          "type": "uint8"
        }
      ],
      "name": "Initialized",
      "type": "event"
    },
    {
      "anonymous": false,
      "inputs": [
        {
          "indexed": true,
          "internalType": "address",
          "name": "previousOwner",
          "type": "address"
        },
        {
          "indexed": true,
          "internalType": "address",
          "name": "newOwner",
          "type": "address"
        }
      ],
      "name": "OwnershipTransferred",
      "type": "event"
    },
    {
      "anonymous": false,
      "inputs": [
        {
          "indexed": false,
          "internalType": "uint256",
          "name": "newMultiplier",
          "type": "uint256"
        }
      ],
      "name": "RewardMultiplierUpdated",
      "type": "event"
    },
    {
      "anonymous": false,
      "inputs": [
        {
          "indexed": true,
          "internalType": "address",
          "name": "implementation",
          "type": "address"
        }
      ],
      "name": "Upgraded",
      "type": "event"
    },
    {
      "anonymous": false,
      "inputs": [
        {
          "indexed": true,
          "internalType": "address",
          "name": "user",
          "type": "address"
        },
        {
          "indexed": false,
          "internalType": "uint256",
          "name": "amount",
          "type": "uint256"
        },
        {
          "indexed": false,
          "internalType": "uint256",
          "name": "principalAfter",
          "type": "uint256"
        }
      ],
      "name": "Withdrawn",
      "type": "event"
    },
    {
      "inputs": [
        {
          "internalType": "address",
          "name": "",
          "type": "address"
        }
      ],
      "name": "accruedRewards",
      "outputs": [
        {
          "internalType": "uint256",
          "name": "",
          "type": "uint256"
        }
      ],
      "stateMutability": "view",
      "type": "function"
    },
    {
      "inputs": [],
      "name": "deposit",
      "outputs": [],
      "stateMutability": "payable",
      "type": "function"
    },
    {
      "inputs": [
        {
          "internalType": "uint256",
          "name": "initialRewardMultiplier",
          "type": "uint256"
        }
      ],
      "name": "initialize",
      "outputs": [],
      "stateMutability": "nonpayable",
      "type": "function"
    },
    {
      "inputs": [
        {
          "internalType": "address",
          "name": "",
          "type": "address"
        }
      ],
      "name": "lastAccrualTimestamp",
      "outputs": [
        {
          "internalType": "uint256",
          "name": "",
          "type": "uint256"
        }
      ],
      "stateMutability": "view",
      "type": "function"
    },
    {
      "inputs": [],
      "name": "owner",
      "outputs": [
        {
          "internalType": "address",
          "name": "",
          "type": "address"
        }
      ],
      "stateMutability": "view",
      "type": "function"
    },
    {
      "inputs": [
        {
          "internalType": "address",
          "name": "user",
          "type": "address"
        }
      ],
      "name": "pendingRewards",
      "outputs": [
        {
          "internalType": "uint256",
          "name": "",
          "type": "uint256"
        }
      ],
      "stateMutability": "view",
      "type": "function"
    },
    {
      "inputs": [
        {
          "internalType": "address",
          "name": "",
          "type": "address"
        }
      ],
      "name": "principalBalance",
      "outputs": [
        {
          "internalType": "uint256",
          "name": "",
          "type": "uint256"
        }
      ],
      "stateMutability": "view",
      "type": "function"
    },
    {
      "inputs": [],
      "name": "proxiableUUID",
      "outputs": [
        {
          "internalType": "bytes32",
          "name": "",
          "type": "bytes32"
        }
      ],
      "stateMutability": "view",
      "type": "function"
    },
    {
      "inputs": [],
      "name": "renounceOwnership",
      "outputs": [],
      "stateMutability": "nonpayable",
      "type": "function"
    },
    {
      "inputs": [],
      "name": "rewardMultiplier",
      "outputs": [
        {
          "internalType": "uint256",
          "name": "",
          "type": "uint256"
        }
      ],
      "stateMutability": "view",
      "type": "function"
    },
    {
      "inputs": [],
      "name": "totalEthLocked",
      "outputs": [
        {
          "internalType": "uint256",
          "name": "",
          "type": "uint256"
        }
      ],
      "stateMutability": "view",
      "type": "function"
    },
    {
      "inputs": [
        {
          "internalType": "address",
          "name": "newOwner",
          "type": "address"
        }
      ],
      "name": "transferOwnership",
      "outputs": [],
      "stateMutability": "nonpayable",
      "type": "function"
    },
    {
      "inputs": [
        {
          "internalType": "uint256",
          "name": "newMultiplier",
          "type": "uint256"
        }
      ],
      "name": "updateRewardMultiplier",
      "outputs": [],
      "stateMutability": "nonpayable",
      "type": "function"
    },
    {
      "inputs": [
        {
          "internalType": "address",
          "name": "newImplementation",
          "type": "address"
        }
      ],
      "name": "upgradeTo",
      "outputs": [],
      "stateMutability": "nonpayable",
      "type": "function"
    },
    {
      "inputs": [
        {
          "internalType": "address",
          "name": "newImplementation",
          "type": "address"
        },
        {
          "internalType": "bytes",
          "name": "data",
          "type": "bytes"
        }
      ],
      "name": "upgradeToAndCall",
      "outputs": [],
      "stateMutability": "payable",
      "type": "function"
    },
    {
      "inputs": [
        {
          "internalType": "uint256",
          "name": "amount",
          "type": "uint256"
        }
      ],
      "name": "withdraw",
      "outputs": [],
      "stateMutability": "nonpayable",
      "type": "function"
    }
  ],
  "bytecode": "0x60a06040523060805234801561001457600080fd5b5061001d610022565b6100e1565b600054610100900460ff161561008e5760405162461bcd60e51b815260206004820152602760248201527f496e697469616c697a61626c653a20636f6e747261637420697320696e697469604482015266616c697a696e6760c81b606482015260840160405180910390fd5b60005460ff908116146100df576000805460ff191660ff9081179091556040519081527f7f26b83ff96e1f2b6a682f133852f6798a09c465da95921460cefb38474024989060200160405180910390a15b565b608051611565610118600039600081816105f801528181610638015281816106d40152818161071401526107a701526115656000f3fe6080604052600436106100f35760003560e01c8063715018a61161008a578063e479c8f711610059578063e479c8f71461026a578063e68fc0ee14610280578063f2fde38b146102ad578063fe4b84df146102cd57600080fd5b8063715018a6146102055780638da5cb5b1461021a578063c5b23af514610242578063d0e30db01461026257600080fd5b80633659cfe6116100c65780633659cfe6146101a75780634f1ef286146101c757806352d1902d146101da5780636f2c590a146101ef57600080fd5b8063128fced1146100f857806316851b36146101385780632e1a7d4d1461016557806331d7a26214610187575b600080fd5b34801561010457600080fd5b506101256101133660046111f8565b60fc6020526000908152604090205481565b6040519081526020015b60405180910390f35b34801561014457600080fd5b506101256101533660046111f8565b60fd6020526000908152604090205481565b34801561017157600080fd5b50610185610180366004611213565b6102ed565b005b34801561019357600080fd5b506101256101a23660046111f8565b61050c565b3480156101b357600080fd5b506101856101c23660046111f8565b6105ee565b6101856101d5366004611242565b6106ca565b3480156101e657600080fd5b5061012561079a565b3480156101fb57600080fd5b5061012560ff5481565b34801561021157600080fd5b5061018561084d565b34801561022657600080fd5b506097546040516001600160a01b03909116815260200161012f565b34801561024e57600080fd5b5061018561025d366004611213565b610861565b6101856108a4565b34801561027657600080fd5b5061012560fe5481565b34801561028c57600080fd5b5061012561029b3660046111f8565b60fb6020526000908152604090205481565b3480156102b957600080fd5b506101856102c83660046111f8565b610983565b3480156102d957600080fd5b506101856102e8366004611213565b6109f9565b6102f5610b1f565b6000811161033a5760405162461bcd60e51b815260206004820152600d60248201526c5a45524f5f574954484452415760981b60448201526064015b60405180910390fd5b61034333610b78565b33600090815260fb602090815260408083205460fc909252822054909161036a828461131a565b9050838110156103b35760405162461bcd60e51b8152602060048201526014602482015273494e53554646494349454e545f42414c414e434560601b6044820152606401610331565b6000828511156103c357826103c5565b845b905060006103d3828761132d565b90506103df828561132d565b33600090815260fc60205260409020556103f9818661132d565b33600090815260fb602052604081209190915560fe805483929061041e90849061132d565b9091555050604051600090339088908381818185875af1925050503d8060008114610465576040519150601f19603f3d011682016040523d82523d6000602084013e61046a565b606091505b50509050806104b15760405162461bcd60e51b815260206004820152601360248201527211551217d514905394d1915497d19052531151606a1b6044820152606401610331565b33600081815260fb60209081526040918290205482518b8152918201527f92ccf450a286a957af52509bc1c9939d1a6a481783e142e41e2499f0bb66ebc6910160405180910390a2505050505050610509600160c955565b50565b6001600160a01b038116600090815260fd60205260408120548190610531904261132d565b905080158061055657506001600160a01b038316600090815260fb6020526040902054155b156105785750506001600160a01b0316600090815260fc602052604090205490565b60ff546001600160a01b038416600090815260fb60205260408120549091670de0b6b3a76400009184916105ab91611340565b6105b59190611340565b6105bf9190611357565b6001600160a01b038516600090815260fc60205260409020549091506105e690829061131a565b949350505050565b6001600160a01b037f00000000000000000000000000000000000000000000000000000000000000001630036106365760405162461bcd60e51b815260040161033190611379565b7f00000000000000000000000000000000000000000000000000000000000000006001600160a01b031661067f6000805160206114e9833981519152546001600160a01b031690565b6001600160a01b0316146106a55760405162461bcd60e51b8152600401610331906113c5565b6106ae81610c91565b6040805160008082526020820190925261050991839190610c99565b6001600160a01b037f00000000000000000000000000000000000000000000000000000000000000001630036107125760405162461bcd60e51b815260040161033190611379565b7f00000000000000000000000000000000000000000000000000000000000000006001600160a01b031661075b6000805160206114e9833981519152546001600160a01b031690565b6001600160a01b0316146107815760405162461bcd60e51b8152600401610331906113c5565b61078a82610c91565b61079682826001610c99565b5050565b6000306001600160a01b037f0000000000000000000000000000000000000000000000000000000000000000161461083a5760405162461bcd60e51b815260206004820152603860248201527f555550535570677261646561626c653a206d757374206e6f742062652063616c60448201527f6c6564207468726f7567682064656c656761746563616c6c00000000000000006064820152608401610331565b506000805160206114e983398151915290565b610855610e09565b61085f6000610e63565b565b610869610e09565b60ff8190556040518181527f2dc77efcef672c24de8314e0bc5c0937b13d1d8c4ccea4acf5246edf821b93d59060200160405180910390a150565b6108ac610b1f565b600034116108eb5760405162461bcd60e51b815260206004820152600c60248201526b16915493d7d1115413d4d25560a21b6044820152606401610331565b6108f433610b78565b33600090815260fb60205260408120805434929061091390849061131a565b925050819055503460fe600082825461092c919061131a565b909155505033600081815260fb6020908152604091829020548251348152918201527f73a19dd210f1a7f902193214c0ee91dd35ee5b4d920cba8d519eca65a7b488ca910160405180910390a261085f600160c955565b61098b610e09565b6001600160a01b0381166109f05760405162461bcd60e51b815260206004820152602660248201527f4f776e61626c653a206e6577206f776e657220697320746865207a65726f206160448201526564647265737360d01b6064820152608401610331565b61050981610e63565b600054610100900460ff1615808015610a195750600054600160ff909116105b80610a335750303b158015610a33575060005460ff166001145b610a965760405162461bcd60e51b815260206004820152602e60248201527f496e697469616c697a61626c653a20636f6e747261637420697320616c72656160448201526d191e481a5b9a5d1a585b1a5e995960921b6064820152608401610331565b6000805460ff191660011790558015610ab9576000805461ff0019166101001790555b610ac1610eb5565b610ac9610ee4565b610ad1610f0b565b60ff8290558015610796576000805461ff0019169055604051600181527f7f26b83ff96e1f2b6a682f133852f6798a09c465da95921460cefb38474024989060200160405180910390a15050565b600260c95403610b715760405162461bcd60e51b815260206004820152601f60248201527f5265656e7472616e637947756172643a207265656e7472616e742063616c6c006044820152606401610331565b600260c955565b6001600160a01b038116600090815260fd60205260408120544291819003610bb757506001600160a01b03909116600090815260fd6020526040902055565b6000610bc3828461132d565b9050600081118015610bec57506001600160a01b038416600090815260fb602052604090205415155b15610c6c5760ff546001600160a01b038516600090815260fb60205260408120549091670de0b6b3a7640000918491610c2491611340565b610c2e9190611340565b610c389190611357565b6001600160a01b038616600090815260fc6020526040812080549293508392909190610c6590849061131a565b9091555050505b50506001600160a01b03909116600090815260fd6020526040902055565b600160c955565b610509610e09565b7f4910fdfa16fed3260ed0e7147f7cc6da11a60208b5b9406d12a635614ffd91435460ff1615610cd157610ccc83610f3a565b505050565b826001600160a01b03166352d1902d6040518163ffffffff1660e01b8152600401602060405180830381865afa925050508015610d2b575060408051601f3d908101601f19168201909252610d2891810190611411565b60015b610d8e5760405162461bcd60e51b815260206004820152602e60248201527f45524331393637557067726164653a206e657720696d706c656d656e7461746960448201526d6f6e206973206e6f74205555505360901b6064820152608401610331565b6000805160206114e98339815191528114610dfd5760405162461bcd60e51b815260206004820152602960248201527f45524331393637557067726164653a20756e737570706f727465642070726f786044820152681a58589b195555525160ba1b6064820152608401610331565b50610ccc838383610fd6565b6097546001600160a01b0316331461085f5760405162461bcd60e51b815260206004820181905260248201527f4f776e61626c653a2063616c6c6572206973206e6f7420746865206f776e65726044820152606401610331565b609780546001600160a01b038381166001600160a01b0319831681179093556040519116919082907f8be0079c531659141344cd1fd0a4f28419497f9722a3daafe3b4186f6b6457e090600090a35050565b600054610100900460ff16610edc5760405162461bcd60e51b81526004016103319061142a565b61085f611001565b600054610100900460ff1661085f5760405162461bcd60e51b81526004016103319061142a565b600054610100900460ff16610f325760405162461bcd60e51b81526004016103319061142a565b61085f611031565b6001600160a01b0381163b610fa75760405162461bcd60e51b815260206004820152602d60248201527f455243313936373a206e657720696d706c656d656e746174696f6e206973206e60448201526c1bdd08184818dbdb9d1c9858dd609a1b6064820152608401610331565b6000805160206114e983398151915280546001600160a01b0319166001600160a01b0392909216919091179055565b610fdf83611058565b600082511180610fec5750805b15610ccc57610ffb8383611098565b50505050565b600054610100900460ff166110285760405162461bcd60e51b81526004016103319061142a565b61085f33610e63565b600054610100900460ff16610c8a5760405162461bcd60e51b81526004016103319061142a565b61106181610f3a565b6040516001600160a01b038216907fbc7cd75a20ee27fd9adebab32041f755214dbc6bffa90cc0225b39da2e5c2d3b90600090a250565b60606110bd8383604051806060016040528060278152602001611509602791396110c6565b90505b92915050565b6060600080856001600160a01b0316856040516110e39190611499565b600060405180830381855af49150503d806000811461111e576040519150601f19603f3d011682016040523d82523d6000602084013e611123565b606091505b50915091506111348683838761113e565b9695505050505050565b606083156111ad5782516000036111a6576001600160a01b0385163b6111a65760405162461bcd60e51b815260206004820152601d60248201527f416464726573733a2063616c6c20746f206e6f6e2d636f6e74726163740000006044820152606401610331565b50816105e6565b6105e683838151156111c25781518083602001fd5b8060405162461bcd60e51b815260040161033191906114b5565b80356001600160a01b03811681146111f357600080fd5b919050565b60006020828403121561120a57600080fd5b6110bd826111dc565b60006020828403121561122557600080fd5b5035919050565b634e487b7160e01b600052604160045260246000fd5b6000806040838503121561125557600080fd5b61125e836111dc565b9150602083013567ffffffffffffffff8082111561127b57600080fd5b818501915085601f83011261128f57600080fd5b8135818111156112a1576112a161122c565b604051601f8201601f19908116603f011681019083821181831017156112c9576112c961122c565b816040528281528860208487010111156112e257600080fd5b8260208601602083013760006020848301015280955050505050509250929050565b634e487b7160e01b600052601160045260246000fd5b808201808211156110c0576110c0611304565b818103818111156110c0576110c0611304565b80820281158282048414176110c0576110c0611304565b60008261137457634e487b7160e01b600052601260045260246000fd5b500490565b6020808252602c908201527f46756e6374696f6e206d7573742062652063616c6c6564207468726f7567682060408201526b19195b1959d85d1958d85b1b60a21b606082015260800190565b6020808252602c908201527f46756e6374696f6e206d7573742062652063616c6c6564207468726f7567682060408201526b6163746976652070726f787960a01b606082015260800190565b60006020828403121561142357600080fd5b5051919050565b6020808252602b908201527f496e697469616c697a61626c653a20636f6e7472616374206973206e6f74206960408201526a6e697469616c697a696e6760a81b606082015260800190565b60005b83811015611490578181015183820152602001611478565b50506000910152565b600082516114ab818460208701611475565b9190910192915050565b60208152600082518060208401526114d4816040850160208701611475565b601f01601f1916919091016040019291505056fe360894a13ba1a3210667c828492db98dca3e2076cc3735a920a3ca505d382bbc416464726573733a206c6f772d6c6576656c2064656c65676174652063616c6c206661696c6564a2646970667358221220efb190a8f0739549ffe55440513783a2f7fa65c0d7d5acfc3f8cad018a5bda0164736f6c63430008180033",
  "linkReferences": {},
  "deployedLinkReferences": {}
}